{
  "_format": "hh-sol-artifact-1",
  "contractName": "OmniUtil",
  "sourceName": "contracts/OmniUtil.sol",
  "abi": [
    {
      "inputs": [
        {
          "internalType": "address",
          "name": "_creator",
          "type": "address"
        },
        {
          "internalType": "address",
          "name": "_treasury",
          "type": "address"
        }
      ],
      "stateMutability": "nonpayable",
      "type": "constructor"
    },
    {
      "anonymous": false,
      "inputs": [
        {
          "indexed": true,
          "internalType": "address",
          "name": "owner",
          "type": "address"
        },
        {
          "indexed": true,
          "internalType": "address",
          "name": "spender",
          "type": "address"
        },
        {
          "indexed": false,
          "internalType": "uint256",
          "name": "value",
          "type": "uint256"
        }
      ],
      "name": "Approval",
      "type": "event"
    },
    {
      "anonymous": false,
      "inputs": [
        {
          "indexed": true,
          "internalType": "address",
          "name": "to",
          "type": "address"
        },
        {
          "indexed": false,
          "internalType": "uint256",
          "name": "amount",
          "type": "uint256"
        },
        {
          "indexed": false,
          "internalType": "string",
          "name": "feeType",
          "type": "string"
        }
      ],
      "name": "FeeDistributed",
      "type": "event"
    },
    {
      "anonymous": false,
      "inputs": [
        {
          "indexed": true,
          "internalType": "address",
          "name": "user",
          "type": "address"
        },
        {
          "indexed": false,
          "internalType": "string",
          "name": "reason",
          "type": "string"
        }
      ],
      "name": "FraudDetected",
      "type": "event"
    },
    {
      "anonymous": false,
      "inputs": [
        {
          "indexed": true,
          "internalType": "address",
          "name": "influencer",
          "type": "address"
        },
        {
          "indexed": false,
          "internalType": "uint256",
          "name": "amount",
          "type": "uint256"
        }
      ],
      "name": "MiettesDistributed",
      "type": "event"
    },
    {
      "anonymous": false,
      "inputs": [
        {
          "indexed": true,
          "internalType": "address",
          "name": "previousOwner",
          "type": "address"
        },
        {
          "indexed": true,
          "internalType": "address",
          "name": "newOwner",
          "type": "address"
        }
      ],
      "name": "OwnershipTransferred",
      "type": "event"
    },
    {
      "anonymous": false,
      "inputs": [
        {
          "indexed": true,
          "internalType": "address",
          "name": "partner",
          "type": "address"
        },
        {
          "indexed": false,
          "internalType": "uint256",
          "name": "rewardRate",
          "type": "uint256"
        }
      ],
      "name": "PartnerAdded",
      "type": "event"
    },
    {
      "anonymous": false,
      "inputs": [
        {
          "indexed": true,
          "internalType": "address",
          "name": "user",
          "type": "address"
        },
        {
          "indexed": false,
          "internalType": "uint256",
          "name": "amount",
          "type": "uint256"
        },
        {
          "indexed": false,
          "internalType": "uint256",
          "name": "usdValue",
          "type": "uint256"
        }
      ],
      "name": "RewardClaimed",
      "type": "event"
    },
    {
      "anonymous": false,
      "inputs": [
        {
          "indexed": true,
          "internalType": "address",
          "name": "user",
          "type": "address"
        },
        {
          "indexed": false,
          "internalType": "string",
          "name": "serviceDescription",
          "type": "string"
        },
        {
          "indexed": false,
          "internalType": "uint256",
          "name": "amount",
          "type": "uint256"
        }
      ],
      "name": "ServiceExchanged",
      "type": "event"
    },
    {
      "anonymous": false,
      "inputs": [
        {
          "indexed": true,
          "internalType": "address",
          "name": "from",
          "type": "address"
        },
        {
          "indexed": true,
          "internalType": "address",
          "name": "to",
          "type": "address"
        },
        {
          "indexed": false,
          "internalType": "uint256",
          "name": "value",
          "type": "uint256"
        }
      ],
      "name": "Transfer",
      "type": "event"
    },
    {
      "anonymous": false,
      "inputs": [
        {
          "indexed": true,
          "internalType": "address",
          "name": "from",
          "type": "address"
        },
        {
          "indexed": true,
          "internalType": "address",
          "name": "to",
          "type": "address"
        },
        {
          "indexed": false,
          "internalType": "uint256",
          "name": "amount",
          "type": "uint256"
        }
      ],
      "name": "TransferInEcosystem",
      "type": "event"
    },
    {
      "anonymous": false,
      "inputs": [
        {
          "indexed": true,
          "internalType": "address",
          "name": "user",
          "type": "address"
        },
        {
          "indexed": false,
          "internalType": "uint256",
          "name": "amount",
          "type": "uint256"
        }
      ],
      "name": "USDTExchanged",
      "type": "event"
    },
    {
      "inputs": [],
      "name": "CREATOR",
      "outputs": [
        {
          "internalType": "address",
          "name": "",
          "type": "address"
        }
      ],
      "stateMutability": "view",
      "type": "function"
    },
    {
      "inputs": [],
      "name": "TREASURY",
      "outputs": [
        {
          "internalType": "address",
          "name": "",
          "type": "address"
        }
      ],
      "stateMutability": "view",
      "type": "function"
    },
    {
      "inputs": [
        {
          "internalType": "address",
          "name": "partner",
          "type": "address"
        },
        {
          "internalType": "uint256",
          "name": "_rewardRate",
          "type": "uint256"
        },
        {
          "internalType": "address",
          "name": "ecosystem",
          "type": "address"
        },
        {
          "internalType": "uint256",
          "name": "_loyaltyFactor",
          "type": "uint256"
        }
      ],
      "name": "addPartner",
      "outputs": [],
      "stateMutability": "nonpayable",
      "type": "function"
    },
    {
      "inputs": [
        {
          "internalType": "address",
          "name": "owner",
          "type": "address"
        },
        {
          "internalType": "address",
          "name": "spender",
          "type": "address"
        }
      ],
      "name": "allowance",
      "outputs": [
        {
          "internalType": "uint256",
          "name": "",
          "type": "uint256"
        }
      ],
      "stateMutability": "view",
      "type": "function"
    },
    {
      "inputs": [
        {
          "internalType": "address",
          "name": "spender",
          "type": "address"
        },
        {
          "internalType": "uint256",
          "name": "amount",
          "type": "uint256"
        }
      ],
      "name": "approve",
      "outputs": [
        {
          "internalType": "bool",
          "name": "",
          "type": "bool"
        }
      ],
      "stateMutability": "nonpayable",
      "type": "function"
    },
    {
      "inputs": [
        {
          "internalType": "address",
          "name": "account",
          "type": "address"
        }
      ],
      "name": "balanceOf",
      "outputs": [
        {
          "internalType": "uint256",
          "name": "",
          "type": "uint256"
        }
      ],
      "stateMutability": "view",
      "type": "function"
    },
    {
      "inputs": [
        {
          "internalType": "uint256",
          "name": "amount",
          "type": "uint256"
        }
      ],
      "name": "burnForStability",
      "outputs": [],
      "stateMutability": "nonpayable",
      "type": "function"
    },
    {
      "inputs": [
        {
          "internalType": "address",
          "name": "partner",
          "type": "address"
        },
        {
          "internalType": "uint256",
          "name": "amountSpentUSD",
          "type": "uint256"
        }
      ],
      "name": "claimReward",
      "outputs": [],
      "stateMutability": "nonpayable",
      "type": "function"
    },
    {
      "inputs": [],
      "name": "decimals",
      "outputs": [
        {
          "internalType": "uint8",
          "name": "",
          "type": "uint8"
        }
      ],
      "stateMutability": "view",
      "type": "function"
    },
    {
      "inputs": [
        {
          "internalType": "address",
          "name": "spender",
          "type": "address"
        },
        {
          "internalType": "uint256",
          "name": "subtractedValue",
          "type": "uint256"
        }
      ],
      "name": "decreaseAllowance",
      "outputs": [
        {
          "internalType": "bool",
          "name": "",
          "type": "bool"
        }
      ],
      "stateMutability": "nonpayable",
      "type": "function"
    },
    {
      "inputs": [
        {
          "internalType": "address[]",
          "name": "influencers",
          "type": "address[]"
        },
        {
          "internalType": "uint256",
          "name": "totalNetworkFee",
          "type": "uint256"
        }
      ],
      "name": "distributeMiettes",
      "outputs": [],
      "stateMutability": "nonpayable",
      "type": "function"
    },
    {
      "inputs": [
        {
          "internalType": "uint256",
          "name": "amount",
          "type": "uint256"
        },
        {
          "internalType": "string",
          "name": "serviceDescription",
          "type": "string"
        }
      ],
      "name": "exchangeForService",
      "outputs": [],
      "stateMutability": "nonpayable",
      "type": "function"
    },
    {
      "inputs": [
        {
          "internalType": "uint256",
          "name": "amount",
          "type": "uint256"
        }
      ],
      "name": "exchangeForUSDT",
      "outputs": [],
      "stateMutability": "nonpayable",
      "type": "function"
    },
    {
      "inputs": [
        {
          "internalType": "address",
          "name": "user",
          "type": "address"
        },
        {
          "internalType": "string",
          "name": "reason",
          "type": "string"
        }
      ],
      "name": "flagFraud",
      "outputs": [],
      "stateMutability": "nonpayable",
      "type": "function"
    },
    {
      "inputs": [
        {
          "internalType": "address",
          "name": "spender",
          "type": "address"
        },
        {
          "internalType": "uint256",
          "name": "addedValue",
          "type": "uint256"
        }
      ],
      "name": "increaseAllowance",
      "outputs": [
        {
          "internalType": "bool",
          "name": "",
          "type": "bool"
        }
      ],
      "stateMutability": "nonpayable",
      "type": "function"
    },
    {
      "inputs": [
        {
          "internalType": "address",
          "name": "",
          "type": "address"
        }
      ],
      "name": "isPartner",
      "outputs": [
        {
          "internalType": "bool",
          "name": "",
          "type": "bool"
        }
      ],
      "stateMutability": "view",
      "type": "function"
    },
    {
      "inputs": [
        {
          "internalType": "address",
          "name": "",
          "type": "address"
        }
      ],
      "name": "loyaltyFactor",
      "outputs": [
        {
          "internalType": "uint256",
          "name": "",
          "type": "uint256"
        }
      ],
      "stateMutability": "view",
      "type": "function"
    },
    {
      "inputs": [
        {
          "internalType": "uint256",
          "name": "amount",
          "type": "uint256"
        }
      ],
      "name": "mintForStability",
      "outputs": [],
      "stateMutability": "nonpayable",
      "type": "function"
    },
    {
      "inputs": [],
      "name": "name",
      "outputs": [
        {
          "internalType": "string",
          "name": "",
          "type": "string"
        }
      ],
      "stateMutability": "view",
      "type": "function"
    },
    {
      "inputs": [],
      "name": "owner",
      "outputs": [
        {
          "internalType": "address",
          "name": "",
          "type": "address"
        }
      ],
      "stateMutability": "view",
      "type": "function"
    },
    {
      "inputs": [
        {
          "internalType": "address",
          "name": "",
          "type": "address"
        }
      ],
      "name": "partnerRewardRates",
      "outputs": [
        {
          "internalType": "uint256",
          "name": "",
          "type": "uint256"
        }
      ],
      "stateMutability": "view",
      "type": "function"
    },
    {
      "inputs": [],
      "name": "renounceOwnership",
      "outputs": [],
      "stateMutability": "nonpayable",
      "type": "function"
    },
    {
      "inputs": [
        {
          "internalType": "uint256",
          "name": "",
          "type": "uint256"
        }
      ],
      "name": "serviceExchanges",
      "outputs": [
        {
          "internalType": "address",
          "name": "user",
          "type": "address"
        },
        {
          "internalType": "string",
          "name": "serviceDescription",
          "type": "string"
        },
        {
          "internalType": "uint256",
          "name": "amount",
          "type": "uint256"
        },
        {
          "internalType": "uint256",
          "name": "timestamp",
          "type": "uint256"
        }
      ],
      "stateMutability": "view",
      "type": "function"
    },
    {
      "inputs": [
        {
          "internalType": "uint256",
          "name": "newRate",
          "type": "uint256"
        }
      ],
      "name": "setUsdtExchangeRate",
      "outputs": [],
      "stateMutability": "nonpayable",
      "type": "function"
    },
    {
      "inputs": [],
      "name": "symbol",
      "outputs": [
        {
          "internalType": "string",
          "name": "",
          "type": "string"
        }
      ],
      "stateMutability": "view",
      "type": "function"
    },
    {
      "inputs": [],
      "name": "totalSupply",
      "outputs": [
        {
          "internalType": "uint256",
          "name": "",
          "type": "uint256"
        }
      ],
      "stateMutability": "view",
      "type": "function"
    },
    {
      "inputs": [
        {
          "internalType": "address",
          "name": "to",
          "type": "address"
        },
        {
          "internalType": "uint256",
          "name": "amount",
          "type": "uint256"
        }
      ],
      "name": "transfer",
      "outputs": [
        {
          "internalType": "bool",
          "name": "",
          "type": "bool"
        }
      ],
      "stateMutability": "nonpayable",
      "type": "function"
    },
    {
      "inputs": [
        {
          "internalType": "address",
          "name": "from",
          "type": "address"
        },
        {
          "internalType": "address",
          "name": "to",
          "type": "address"
        },
        {
          "internalType": "uint256",
          "name": "amount",
          "type": "uint256"
        }
      ],
      "name": "transferFrom",
      "outputs": [
        {
          "internalType": "bool",
          "name": "",
          "type": "bool"
        }
      ],
      "stateMutability": "nonpayable",
      "type": "function"
    },
    {
      "inputs": [
        {
          "internalType": "address",
          "name": "to",
          "type": "address"
        },
        {
          "internalType": "uint256",
          "name": "amount",
          "type": "uint256"
        }
      ],
      "name": "transferInEcosystem",
      "outputs": [],
      "stateMutability": "nonpayable",
      "type": "function"
    },
    {
      "inputs": [
        {
          "internalType": "address",
          "name": "newOwner",
          "type": "address"
        }
      ],
      "name": "transferOwnership",
      "outputs": [],
      "stateMutability": "nonpayable",
      "type": "function"
    },
    {
      "inputs": [],
      "name": "usdtExchangeRate",
      "outputs": [
        {
          "internalType": "uint256",
          "name": "",
          "type": "uint256"
        }
      ],
      "stateMutability": "view",
      "type": "function"
    },
    {
      "inputs": [
        {
          "internalType": "address",
          "name": "",
          "type": "address"
        }
      ],
      "name": "userEcosystem",
      "outputs": [
        {
          "internalType": "address",
          "name": "",
          "type": "address"
        }
      ],
      "stateMutability": "view",
      "type": "function"
    }
  ],
  "bytecode": "0x60806040526001600d553480156200001657600080fd5b50604051620043993803806200439983398181016040528101906200003c91906200046f565b6040518060400160405280600881526020017f4f6d6e695574696c0000000000000000000000000000000000000000000000008152506040518060400160405280600481526020017f5554494c000000000000000000000000000000000000000000000000000000008152508160039081620000b9919062000730565b508060049081620000cb919062000730565b505050620000ee620000e2620001b760201b60201c565b620001bf60201b60201c565b81600660006101000a81548173ffffffffffffffffffffffffffffffffffffffff021916908373ffffffffffffffffffffffffffffffffffffffff16021790555080600760006101000a81548173ffffffffffffffffffffffffffffffffffffffff021916908373ffffffffffffffffffffffffffffffffffffffff160217905550620001af33620001856200028560201b60201c565b600a620001939190620009a7565b620f4240620001a39190620009f8565b6200028e60201b60201c565b505062000b2f565b600033905090565b6000600560009054906101000a900473ffffffffffffffffffffffffffffffffffffffff16905081600560006101000a81548173ffffffffffffffffffffffffffffffffffffffff021916908373ffffffffffffffffffffffffffffffffffffffff1602179055508173ffffffffffffffffffffffffffffffffffffffff168173ffffffffffffffffffffffffffffffffffffffff167f8be0079c531659141344cd1fd0a4f28419497f9722a3daafe3b4186f6b6457e060405160405180910390a35050565b60006012905090565b600073ffffffffffffffffffffffffffffffffffffffff168273ffffffffffffffffffffffffffffffffffffffff160362000300576040517f08c379a0000000000000000000000000000000000000000000000000000000008152600401620002f79062000aa4565b60405180910390fd5b6200031460008383620003fb60201b60201c565b806002600082825462000328919062000ac6565b92505081905550806000808473ffffffffffffffffffffffffffffffffffffffff1673ffffffffffffffffffffffffffffffffffffffff168152602001908152602001600020600082825401925050819055508173ffffffffffffffffffffffffffffffffffffffff16600073ffffffffffffffffffffffffffffffffffffffff167fddf252ad1be2c89b69c2b068fc378daa952ba7f163c4a11628f55a4df523b3ef83604051620003db919062000b12565b60405180910390a3620003f7600083836200040060201b60201c565b5050565b505050565b505050565b600080fd5b600073ffffffffffffffffffffffffffffffffffffffff82169050919050565b600062000437826200040a565b9050919050565b62000449816200042a565b81146200045557600080fd5b50565b60008151905062000469816200043e565b92915050565b6000806040838503121562000489576200048862000405565b5b6000620004998582860162000458565b9250506020620004ac8582860162000458565b9150509250929050565b600081519050919050565b7f4e487b7100000000000000000000000000000000000000000000000000000000600052604160045260246000fd5b7f4e487b7100000000000000000000000000000000000000000000000000000000600052602260045260246000fd5b600060028204905060018216806200053857607f821691505b6020821081036200054e576200054d620004f0565b5b50919050565b60008190508160005260206000209050919050565b60006020601f8301049050919050565b600082821b905092915050565b600060088302620005b87fffffffffffffffffffffffffffffffffffffffffffffffffffffffffffffffff8262000579565b620005c4868362000579565b95508019841693508086168417925050509392505050565b6000819050919050565b6000819050919050565b6000620006116200060b6200060584620005dc565b620005e6565b620005dc565b9050919050565b6000819050919050565b6200062d83620005f0565b620006456200063c8262000618565b84845462000586565b825550505050565b600090565b6200065c6200064d565b6200066981848462000622565b505050565b5b8181101562000691576200068560008262000652565b6001810190506200066f565b5050565b601f821115620006e057620006aa8162000554565b620006b58462000569565b81016020851015620006c5578190505b620006dd620006d48562000569565b8301826200066e565b50505b505050565b600082821c905092915050565b60006200070560001984600802620006e5565b1980831691505092915050565b6000620007208383620006f2565b9150826002028217905092915050565b6200073b82620004b6565b67ffffffffffffffff811115620007575762000756620004c1565b5b6200076382546200051f565b6200077082828562000695565b600060209050601f831160018114620007a8576000841562000793578287015190505b6200079f858262000712565b8655506200080f565b601f198416620007b88662000554565b60005b82811015620007e257848901518255600182019150602085019450602081019050620007bb565b86831015620008025784890151620007fe601f891682620006f2565b8355505b6001600288020188555050505b505050505050565b7f4e487b7100000000000000000000000000000000000000000000000000000000600052601160045260246000fd5b60008160011c9050919050565b6000808291508390505b6001851115620008a5578086048111156200087d576200087c62000817565b5b60018516156200088d5780820291505b80810290506200089d8562000846565b94506200085d565b94509492505050565b600082620008c0576001905062000993565b81620008d0576000905062000993565b8160018114620008e95760028114620008f4576200092a565b600191505062000993565b60ff84111562000909576200090862000817565b5b8360020a91508482111562000923576200092262000817565b5b5062000993565b5060208310610133831016604e8410600b8410161715620009645782820a9050838111156200095e576200095d62000817565b5b62000993565b62000973848484600162000853565b925090508184048111156200098d576200098c62000817565b5b81810290505b9392505050565b600060ff82169050919050565b6000620009b482620005dc565b9150620009c1836200099a565b9250620009f07fffffffffffffffffffffffffffffffffffffffffffffffffffffffffffffffff8484620008ae565b905092915050565b600062000a0582620005dc565b915062000a1283620005dc565b925082820262000a2281620005dc565b9150828204841483151762000a3c5762000a3b62000817565b5b5092915050565b600082825260208201905092915050565b7f45524332303a206d696e7420746f20746865207a65726f206164647265737300600082015250565b600062000a8c601f8362000a43565b915062000a998262000a54565b602082019050919050565b6000602082019050818103600083015262000abf8162000a7d565b9050919050565b600062000ad382620005dc565b915062000ae083620005dc565b925082820190508082111562000afb5762000afa62000817565b5b92915050565b62000b0c81620005dc565b82525050565b600060208201905062000b29600083018462000b01565b92915050565b61385a8062000b3f6000396000f3fe608060405234801561001057600080fd5b50600436106101f05760003560e01c80637e943d261161010f578063a457c2d7116100a2578063e4bce1b711610071578063e4bce1b7146105c9578063e4fbb609146105fc578063efb89f7d1461061a578063f2fde38b1461064a576101f0565b8063a457c2d71461051d578063a9059cbb1461054d578063b0ecf83b1461057d578063dd62ed3e14610599576101f0565b80638da5cb5b116100de5780638da5cb5b14610495578063940a950d146104b357806395d89b41146104e35780639e32e36014610501576101f0565b80637e943d26146104115780637ff710221461042d5780638211cabc146104495780638c0f9aac14610465576101f0565b806339509351116101875780636a7cdb0b116101565780636a7cdb0b1461038b5780636fb6d2c0146103bb57806370a08231146103d7578063715018a614610407576101f0565b8063395093511461030757806354decde1146103375780635b593b59146103535780635b7e638f1461036f576101f0565b806323b872dd116101c357806323b872dd1461027d5780632d2c5565146102ad57806330e6d7aa146102cb578063313ce567146102e9576101f0565b806306fdde03146101f5578063095ea7b314610213578063174e31c41461024357806318160ddd1461025f575b600080fd5b6101fd610666565b60405161020a9190612227565b60405180910390f35b61022d600480360381019061022891906122f1565b6106f8565b60405161023a919061234c565b60405180910390f35b61025d600480360381019061025891906122f1565b61071b565b005b610267610a7f565b6040516102749190612376565b60405180910390f35b61029760048036038101906102929190612391565b610a89565b6040516102a4919061234c565b60405180910390f35b6102b5610ab8565b6040516102c291906123f3565b60405180910390f35b6102d3610ade565b6040516102e09190612376565b60405180910390f35b6102f1610ae4565b6040516102fe919061242a565b60405180910390f35b610321600480360381019061031c91906122f1565b610aed565b60405161032e919061234c565b60405180910390f35b610351600480360381019061034c919061258d565b610b24565b005b61036d600480360381019061036891906125e9565b610c4a565b005b610389600480360381019061038491906125e9565b610cf0565b005b6103a560048036038101906103a09190612616565b610d02565b6040516103b29190612376565b60405180910390f35b6103d560048036038101906103d091906122f1565b610d1a565b005b6103f160048036038101906103ec9190612616565b610f05565b6040516103fe9190612376565b60405180910390f35b61040f610f4d565b005b61042b600480360381019061042691906126f8565b610f61565b005b61044760048036038101906104429190612754565b61116b565b005b610463600480360381019061045e91906125e9565b6113b2565b005b61047f600480360381019061047a9190612616565b6113e9565b60405161048c919061234c565b60405180910390f35b61049d611409565b6040516104aa91906123f3565b60405180910390f35b6104cd60048036038101906104c89190612616565b611433565b6040516104da9190612376565b60405180910390f35b6104eb61144b565b6040516104f89190612227565b60405180910390f35b61051b600480360381019061051691906127bb565b6114dd565b005b610537600480360381019061053291906122f1565b611537565b604051610544919061234c565b60405180910390f35b610567600480360381019061056291906122f1565b6115ae565b604051610574919061234c565b60405180910390f35b610597600480360381019061059291906125e9565b6115d1565b005b6105b360048036038101906105ae9190612817565b611608565b6040516105c09190612376565b60405180910390f35b6105e360048036038101906105de91906125e9565b61168f565b6040516105f39493929190612857565b60405180910390f35b610604611777565b60405161061191906123f3565b60405180910390f35b610634600480360381019061062f9190612616565b61179d565b60405161064191906123f3565b60405180910390f35b610664600480360381019061065f9190612616565b6117d0565b005b606060038054610675906128d2565b80601f01602080910402602001604051908101604052809291908181526020018280546106a1906128d2565b80156106ee5780601f106106c3576101008083540402835291602001916106ee565b820191906000526020600020905b8154815290600101906020018083116106d157829003601f168201915b5050505050905090565b600080610703611853565b905061071081858561185b565b600191505092915050565b600a60008373ffffffffffffffffffffffffffffffffffffffff1673ffffffffffffffffffffffffffffffffffffffff16815260200190815260200160002060009054906101000a900460ff166107a7576040517f08c379a000000000000000000000000000000000000000000000000000000000815260040161079e9061294f565b60405180910390fd5b600081116107ea576040517f08c379a00000000000000000000000000000000000000000000000000000000081526004016107e1906129bb565b60405180910390fd5b6000600860008473ffffffffffffffffffffffffffffffffffffffff1673ffffffffffffffffffffffffffffffffffffffff1681526020019081526020016000205490506000600b60008573ffffffffffffffffffffffffffffffffffffffff1673ffffffffffffffffffffffffffffffffffffffff1681526020019081526020016000205490506000606483856108829190612a0a565b61088c9190612a7b565b90506000606460018361089f9190612a0a565b6108a99190612a7b565b9050600060646001846108bc9190612a0a565b6108c69190612a7b565b905060008183856108d79190612aac565b6108e19190612aac565b90506108ed3382611a24565b610919600660009054906101000a900473ffffffffffffffffffffffffffffffffffffffff1684611a24565b610945600760009054906101000a900473ffffffffffffffffffffffffffffffffffffffff1683611a24565b3373ffffffffffffffffffffffffffffffffffffffff167ff01da32686223933d8a18a391060918c7f11a3648639edd87ae013e2e2731743828960405161098d929190612ae0565b60405180910390a2600660009054906101000a900473ffffffffffffffffffffffffffffffffffffffff1673ffffffffffffffffffffffffffffffffffffffff167f45c93635814d15a78f2c9d195f2efc256a56c851e08b146194f18dc698f4e81a846040516109fd9190612b55565b60405180910390a2600760009054906101000a900473ffffffffffffffffffffffffffffffffffffffff1673ffffffffffffffffffffffffffffffffffffffff167f45c93635814d15a78f2c9d195f2efc256a56c851e08b146194f18dc698f4e81a83604051610a6d9190612bcf565b60405180910390a25050505050505050565b6000600254905090565b600080610a94611853565b9050610aa1858285611b7a565b610aac858585611c06565b60019150509392505050565b600760009054906101000a900473ffffffffffffffffffffffffffffffffffffffff1681565b600d5481565b60006012905090565b600080610af8611853565b9050610b19818585610b0a8589611608565b610b149190612bfd565b61185b565b600191505092915050565b610b2c611e7c565b6000825111610b70576040517f08c379a0000000000000000000000000000000000000000000000000000000008152600401610b6790612c7d565b60405180910390fd5b600082516064610b809190612a0a565b600a83610b8d9190612a0a565b610b979190612a7b565b905060005b8351811015610c4457610bc9848281518110610bbb57610bba612c9d565b5b602002602001015183611a24565b838181518110610bdc57610bdb612c9d565b5b602002602001015173ffffffffffffffffffffffffffffffffffffffff167fae2836119c4aafe281007667fea5790acb43a8cb93e138556b918ba8917f48c783604051610c299190612376565b60405180910390a28080610c3c90612ccc565b915050610b9c565b50505050565b80610c5433610f05565b1015610c95576040517f08c379a0000000000000000000000000000000000000000000000000000000008152600401610c8c90612d60565b60405180910390fd5b610c9f3382611efa565b3373ffffffffffffffffffffffffffffffffffffffff167fe172eaadf9ddb44c4718b3f22d0f5b689f0f4316d65c5bf38c48399530d2e39482604051610ce59190612376565b60405180910390a250565b610cf8611e7c565b80600d8190555050565b600b6020528060005260406000206000915090505481565b80610d2433610f05565b1015610d65576040517f08c379a0000000000000000000000000000000000000000000000000000000008152600401610d5c90612d60565b60405180910390fd5b600960008373ffffffffffffffffffffffffffffffffffffffff1673ffffffffffffffffffffffffffffffffffffffff16815260200190815260200160002060009054906101000a900473ffffffffffffffffffffffffffffffffffffffff1673ffffffffffffffffffffffffffffffffffffffff16600960003373ffffffffffffffffffffffffffffffffffffffff1673ffffffffffffffffffffffffffffffffffffffff16815260200190815260200160002060009054906101000a900473ffffffffffffffffffffffffffffffffffffffff1673ffffffffffffffffffffffffffffffffffffffff1614610e91576040517f08c379a0000000000000000000000000000000000000000000000000000000008152600401610e8890612df2565b60405180910390fd5b610e9c338383611c06565b8173ffffffffffffffffffffffffffffffffffffffff163373ffffffffffffffffffffffffffffffffffffffff167f104a9d1277556ca2dadc097f5cc4395358a01a73d92ec300d3de6b01dafa6eb283604051610ef99190612376565b60405180910390a35050565b60008060008373ffffffffffffffffffffffffffffffffffffffff1673ffffffffffffffffffffffffffffffffffffffff168152602001908152602001600020549050919050565b610f55611e7c565b610f5f60006120c7565b565b81610f6b33610f05565b1015610fac576040517f08c379a0000000000000000000000000000000000000000000000000000000008152600401610fa390612d60565b60405180910390fd5b600a60003373ffffffffffffffffffffffffffffffffffffffff1673ffffffffffffffffffffffffffffffffffffffff16815260200190815260200160002060009054906101000a900460ff16611038576040517f08c379a000000000000000000000000000000000000000000000000000000000815260040161102f90612e84565b60405180910390fd5b6110423383611efa565b600c60405180608001604052803373ffffffffffffffffffffffffffffffffffffffff16815260200183815260200184815260200142815250908060018154018082558091505060019003906000526020600020906004020160009091909190915060008201518160000160006101000a81548173ffffffffffffffffffffffffffffffffffffffff021916908373ffffffffffffffffffffffffffffffffffffffff16021790555060208201518160010190816111009190613050565b50604082015181600201556060820151816003015550503373ffffffffffffffffffffffffffffffffffffffff167ffdd9c0148cecb076197922daf53fc3465fa72fa0bebc00cf0b2d4a38f9b84154828460405161115f929190613122565b60405180910390a25050565b611173611e7c565b600a60008573ffffffffffffffffffffffffffffffffffffffff1673ffffffffffffffffffffffffffffffffffffffff16815260200190815260200160002060009054906101000a900460ff1615611200576040517f08c379a00000000000000000000000000000000000000000000000000000000081526004016111f79061319e565b60405180910390fd5b6001600a60008673ffffffffffffffffffffffffffffffffffffffff1673ffffffffffffffffffffffffffffffffffffffff16815260200190815260200160002060006101000a81548160ff02191690831515021790555082600860008673ffffffffffffffffffffffffffffffffffffffff1673ffffffffffffffffffffffffffffffffffffffff1681526020019081526020016000208190555081600960008673ffffffffffffffffffffffffffffffffffffffff1673ffffffffffffffffffffffffffffffffffffffff16815260200190815260200160002060006101000a81548173ffffffffffffffffffffffffffffffffffffffff021916908373ffffffffffffffffffffffffffffffffffffffff16021790555080600b60008673ffffffffffffffffffffffffffffffffffffffff1673ffffffffffffffffffffffffffffffffffffffff168152602001908152602001600020819055508373ffffffffffffffffffffffffffffffffffffffff167f2b06702faf86eea27052346f06b81fc1b0108091df3a0fe76bfb7ff20eb0d3df846040516113a49190612376565b60405180910390a250505050565b6113ba611e7c565b6113e6600760009054906101000a900473ffffffffffffffffffffffffffffffffffffffff1682611a24565b50565b600a6020528060005260406000206000915054906101000a900460ff1681565b6000600560009054906101000a900473ffffffffffffffffffffffffffffffffffffffff16905090565b60086020528060005260406000206000915090505481565b60606004805461145a906128d2565b80601f0160208091040260200160405190810160405280929190818152602001828054611486906128d2565b80156114d35780601f106114a8576101008083540402835291602001916114d3565b820191906000526020600020905b8154815290600101906020018083116114b657829003601f168201915b5050505050905090565b6114e5611e7c565b8173ffffffffffffffffffffffffffffffffffffffff167facc320e589f1ccaf53039099aba3ccbc80f1109cc11a4d4cface4432c87e0cf48260405161152b9190612227565b60405180910390a25050565b600080611542611853565b905060006115508286611608565b905083811015611595576040517f08c379a000000000000000000000000000000000000000000000000000000000815260040161158c90613230565b60405180910390fd5b6115a2828686840361185b565b60019250505092915050565b6000806115b9611853565b90506115c6818585611c06565b600191505092915050565b6115d9611e7c565b611605600760009054906101000a900473ffffffffffffffffffffffffffffffffffffffff1682611efa565b50565b6000600160008473ffffffffffffffffffffffffffffffffffffffff1673ffffffffffffffffffffffffffffffffffffffff16815260200190815260200160002060008373ffffffffffffffffffffffffffffffffffffffff1673ffffffffffffffffffffffffffffffffffffffff16815260200190815260200160002054905092915050565b600c818154811061169f57600080fd5b90600052602060002090600402016000915090508060000160009054906101000a900473ffffffffffffffffffffffffffffffffffffffff16908060010180546116e8906128d2565b80601f0160208091040260200160405190810160405280929190818152602001828054611714906128d2565b80156117615780601f1061173657610100808354040283529160200191611761565b820191906000526020600020905b81548152906001019060200180831161174457829003601f168201915b5050505050908060020154908060030154905084565b600660009054906101000a900473ffffffffffffffffffffffffffffffffffffffff1681565b60096020528060005260406000206000915054906101000a900473ffffffffffffffffffffffffffffffffffffffff1681565b6117d8611e7c565b600073ffffffffffffffffffffffffffffffffffffffff168173ffffffffffffffffffffffffffffffffffffffff1603611847576040517f08c379a000000000000000000000000000000000000000000000000000000000815260040161183e906132c2565b60405180910390fd5b611850816120c7565b50565b600033905090565b600073ffffffffffffffffffffffffffffffffffffffff168373ffffffffffffffffffffffffffffffffffffffff16036118ca576040517f08c379a00000000000000000000000000000000000000000000000000000000081526004016118c190613354565b60405180910390fd5b600073ffffffffffffffffffffffffffffffffffffffff168273ffffffffffffffffffffffffffffffffffffffff1603611939576040517f08c379a0000000000000000000000000000000000000000000000000000000008152600401611930906133e6565b60405180910390fd5b80600160008573ffffffffffffffffffffffffffffffffffffffff1673ffffffffffffffffffffffffffffffffffffffff16815260200190815260200160002060008473ffffffffffffffffffffffffffffffffffffffff1673ffffffffffffffffffffffffffffffffffffffff168152602001908152602001600020819055508173ffffffffffffffffffffffffffffffffffffffff168373ffffffffffffffffffffffffffffffffffffffff167f8c5be1e5ebec7d5bd14f71427d1e84f3dd0314c0f7b2291e5b200ac8c7c3b92583604051611a179190612376565b60405180910390a3505050565b600073ffffffffffffffffffffffffffffffffffffffff168273ffffffffffffffffffffffffffffffffffffffff1603611a93576040517f08c379a0000000000000000000000000000000000000000000000000000000008152600401611a8a90613452565b60405180910390fd5b611a9f6000838361218d565b8060026000828254611ab19190612bfd565b92505081905550806000808473ffffffffffffffffffffffffffffffffffffffff1673ffffffffffffffffffffffffffffffffffffffff168152602001908152602001600020600082825401925050819055508173ffffffffffffffffffffffffffffffffffffffff16600073ffffffffffffffffffffffffffffffffffffffff167fddf252ad1be2c89b69c2b068fc378daa952ba7f163c4a11628f55a4df523b3ef83604051611b629190612376565b60405180910390a3611b7660008383612192565b5050565b6000611b868484611608565b90507fffffffffffffffffffffffffffffffffffffffffffffffffffffffffffffffff8114611c005781811015611bf2576040517f08c379a0000000000000000000000000000000000000000000000000000000008152600401611be9906134be565b60405180910390fd5b611bff848484840361185b565b5b50505050565b600073ffffffffffffffffffffffffffffffffffffffff168373ffffffffffffffffffffffffffffffffffffffff1603611c75576040517f08c379a0000000000000000000000000000000000000000000000000000000008152600401611c6c90613550565b60405180910390fd5b600073ffffffffffffffffffffffffffffffffffffffff168273ffffffffffffffffffffffffffffffffffffffff1603611ce4576040517f08c379a0000000000000000000000000000000000000000000000000000000008152600401611cdb906135e2565b60405180910390fd5b611cef83838361218d565b60008060008573ffffffffffffffffffffffffffffffffffffffff1673ffffffffffffffffffffffffffffffffffffffff16815260200190815260200160002054905081811015611d75576040517f08c379a0000000000000000000000000000000000000000000000000000000008152600401611d6c90613674565b60405180910390fd5b8181036000808673ffffffffffffffffffffffffffffffffffffffff1673ffffffffffffffffffffffffffffffffffffffff16815260200190815260200160002081905550816000808573ffffffffffffffffffffffffffffffffffffffff1673ffffffffffffffffffffffffffffffffffffffff168152602001908152602001600020600082825401925050819055508273ffffffffffffffffffffffffffffffffffffffff168473ffffffffffffffffffffffffffffffffffffffff167fddf252ad1be2c89b69c2b068fc378daa952ba7f163c4a11628f55a4df523b3ef84604051611e639190612376565b60405180910390a3611e76848484612192565b50505050565b611e84611853565b73ffffffffffffffffffffffffffffffffffffffff16611ea2611409565b73ffffffffffffffffffffffffffffffffffffffff1614611ef8576040517f08c379a0000000000000000000000000000000000000000000000000000000008152600401611eef906136e0565b60405180910390fd5b565b600073ffffffffffffffffffffffffffffffffffffffff168273ffffffffffffffffffffffffffffffffffffffff1603611f69576040517f08c379a0000000000000000000000000000000000000000000000000000000008152600401611f6090613772565b60405180910390fd5b611f758260008361218d565b60008060008473ffffffffffffffffffffffffffffffffffffffff1673ffffffffffffffffffffffffffffffffffffffff16815260200190815260200160002054905081811015611ffb576040517f08c379a0000000000000000000000000000000000000000000000000000000008152600401611ff290613804565b60405180910390fd5b8181036000808573ffffffffffffffffffffffffffffffffffffffff1673ffffffffffffffffffffffffffffffffffffffff1681526020019081526020016000208190555081600260008282540392505081905550600073ffffffffffffffffffffffffffffffffffffffff168373ffffffffffffffffffffffffffffffffffffffff167fddf252ad1be2c89b69c2b068fc378daa952ba7f163c4a11628f55a4df523b3ef846040516120ae9190612376565b60405180910390a36120c283600084612192565b505050565b6000600560009054906101000a900473ffffffffffffffffffffffffffffffffffffffff16905081600560006101000a81548173ffffffffffffffffffffffffffffffffffffffff021916908373ffffffffffffffffffffffffffffffffffffffff1602179055508173ffffffffffffffffffffffffffffffffffffffff168173ffffffffffffffffffffffffffffffffffffffff167f8be0079c531659141344cd1fd0a4f28419497f9722a3daafe3b4186f6b6457e060405160405180910390a35050565b505050565b505050565b600081519050919050565b600082825260208201905092915050565b60005b838110156121d15780820151818401526020810190506121b6565b60008484015250505050565b6000601f19601f8301169050919050565b60006121f982612197565b61220381856121a2565b93506122138185602086016121b3565b61221c816121dd565b840191505092915050565b6000602082019050818103600083015261224181846121ee565b905092915050565b6000604051905090565b600080fd5b600080fd5b600073ffffffffffffffffffffffffffffffffffffffff82169050919050565b60006122888261225d565b9050919050565b6122988161227d565b81146122a357600080fd5b50565b6000813590506122b58161228f565b92915050565b6000819050919050565b6122ce816122bb565b81146122d957600080fd5b50565b6000813590506122eb816122c5565b92915050565b6000806040838503121561230857612307612253565b5b6000612316858286016122a6565b9250506020612327858286016122dc565b9150509250929050565b60008115159050919050565b61234681612331565b82525050565b6000602082019050612361600083018461233d565b92915050565b612370816122bb565b82525050565b600060208201905061238b6000830184612367565b92915050565b6000806000606084860312156123aa576123a9612253565b5b60006123b8868287016122a6565b93505060206123c9868287016122a6565b92505060406123da868287016122dc565b9150509250925092565b6123ed8161227d565b82525050565b600060208201905061240860008301846123e4565b92915050565b600060ff82169050919050565b6124248161240e565b82525050565b600060208201905061243f600083018461241b565b92915050565b600080fd5b7f4e487b7100000000000000000000000000000000000000000000000000000000600052604160045260246000fd5b612482826121dd565b810181811067ffffffffffffffff821117156124a1576124a061244a565b5b80604052505050565b60006124b4612249565b90506124c08282612479565b919050565b600067ffffffffffffffff8211156124e0576124df61244a565b5b602082029050602081019050919050565b600080fd5b6000612509612504846124c5565b6124aa565b9050808382526020820190506020840283018581111561252c5761252b6124f1565b5b835b81811015612555578061254188826122a6565b84526020840193505060208101905061252e565b5050509392505050565b600082601f83011261257457612573612445565b5b81356125848482602086016124f6565b91505092915050565b600080604083850312156125a4576125a3612253565b5b600083013567ffffffffffffffff8111156125c2576125c1612258565b5b6125ce8582860161255f565b92505060206125df858286016122dc565b9150509250929050565b6000602082840312156125ff576125fe612253565b5b600061260d848285016122dc565b91505092915050565b60006020828403121561262c5761262b612253565b5b600061263a848285016122a6565b91505092915050565b600080fd5b600067ffffffffffffffff8211156126635761266261244a565b5b61266c826121dd565b9050602081019050919050565b82818337600083830152505050565b600061269b61269684612648565b6124aa565b9050828152602081018484840111156126b7576126b6612643565b5b6126c2848285612679565b509392505050565b600082601f8301126126df576126de612445565b5b81356126ef848260208601612688565b91505092915050565b6000806040838503121561270f5761270e612253565b5b600061271d858286016122dc565b925050602083013567ffffffffffffffff81111561273e5761273d612258565b5b61274a858286016126ca565b9150509250929050565b6000806000806080858703121561276e5761276d612253565b5b600061277c878288016122a6565b945050602061278d878288016122dc565b935050604061279e878288016122a6565b92505060606127af878288016122dc565b91505092959194509250565b600080604083850312156127d2576127d1612253565b5b60006127e0858286016122a6565b925050602083013567ffffffffffffffff81111561280157612800612258565b5b61280d858286016126ca565b9150509250929050565b6000806040838503121561282e5761282d612253565b5b600061283c858286016122a6565b925050602061284d858286016122a6565b9150509250929050565b600060808201905061286c60008301876123e4565b818103602083015261287e81866121ee565b905061288d6040830185612367565b61289a6060830184612367565b95945050505050565b7f4e487b7100000000000000000000000000000000000000000000000000000000600052602260045260246000fd5b600060028204905060018216806128ea57607f821691505b6020821081036128fd576128fc6128a3565b5b50919050565b7f50617274656e61697265206e6f6e2076616c6964650000000000000000000000600082015250565b60006129396015836121a2565b915061294482612903565b602082019050919050565b600060208201905081810360008301526129688161292c565b9050919050565b7f4d6f6e74616e7420646f69742065747265203e20300000000000000000000000600082015250565b60006129a56015836121a2565b91506129b08261296f565b602082019050919050565b600060208201905081810360008301526129d481612998565b9050919050565b7f4e487b7100000000000000000000000000000000000000000000000000000000600052601160045260246000fd5b6000612a15826122bb565b9150612a20836122bb565b9250828202612a2e816122bb565b91508282048414831517612a4557612a446129db565b5b5092915050565b7f4e487b7100000000000000000000000000000000000000000000000000000000600052601260045260246000fd5b6000612a86826122bb565b9150612a91836122bb565b925082612aa157612aa0612a4c565b5b828204905092915050565b6000612ab7826122bb565b9150612ac2836122bb565b9250828203905081811115612ada57612ad96129db565b5b92915050565b6000604082019050612af56000830185612367565b612b026020830184612367565b9392505050565b7f436f707972696768742046656500000000000000000000000000000000000000600082015250565b6000612b3f600d836121a2565b9150612b4a82612b09565b602082019050919050565b6000604082019050612b6a6000830184612367565b8181036020830152612b7b81612b32565b905092915050565b7f4e6574776f726b20537570706f72742046656500000000000000000000000000600082015250565b6000612bb96013836121a2565b9150612bc482612b83565b602082019050919050565b6000604082019050612be46000830184612367565b8181036020830152612bf581612bac565b905092915050565b6000612c08826122bb565b9150612c13836122bb565b9250828201905080821115612c2b57612c2a6129db565b5b92915050565b7f417563756e20696e666c75656e63657572000000000000000000000000000000600082015250565b6000612c676011836121a2565b9150612c7282612c31565b602082019050919050565b60006020820190508181036000830152612c9681612c5a565b9050919050565b7f4e487b7100000000000000000000000000000000000000000000000000000000600052603260045260246000fd5b6000612cd7826122bb565b91507fffffffffffffffffffffffffffffffffffffffffffffffffffffffffffffffff8203612d0957612d086129db565b5b600182019050919050565b7f536f6c646520696e737566666973616e74000000000000000000000000000000600082015250565b6000612d4a6011836121a2565b9150612d5582612d14565b602082019050919050565b60006020820190508181036000830152612d7981612d3d565b9050919050565b7f5472616e736665727420756e697175656d656e742064616e73206c65206d656d60008201527f652065636f73797374656d650000000000000000000000000000000000000000602082015250565b6000612ddc602c836121a2565b9150612de782612d80565b604082019050919050565b60006020820190508181036000830152612e0b81612dcf565b9050919050565b7f5365756c20756e2070617274656e61697265207065757420656368616e67657260008201527f2064657320736572766963657300000000000000000000000000000000000000602082015250565b6000612e6e602d836121a2565b9150612e7982612e12565b604082019050919050565b60006020820190508181036000830152612e9d81612e61565b9050919050565b60008190508160005260206000209050919050565b60006020601f8301049050919050565b600082821b905092915050565b600060088302612f067fffffffffffffffffffffffffffffffffffffffffffffffffffffffffffffffff82612ec9565b612f108683612ec9565b95508019841693508086168417925050509392505050565b6000819050919050565b6000612f4d612f48612f43846122bb565b612f28565b6122bb565b9050919050565b6000819050919050565b612f6783612f32565b612f7b612f7382612f54565b848454612ed6565b825550505050565b600090565b612f90612f83565b612f9b818484612f5e565b505050565b5b81811015612fbf57612fb4600082612f88565b600181019050612fa1565b5050565b601f82111561300457612fd581612ea4565b612fde84612eb9565b81016020851015612fed578190505b613001612ff985612eb9565b830182612fa0565b50505b505050565b600082821c905092915050565b600061302760001984600802613009565b1980831691505092915050565b60006130408383613016565b9150826002028217905092915050565b61305982612197565b67ffffffffffffffff8111156130725761307161244a565b5b61307c82546128d2565b613087828285612fc3565b600060209050601f8311600181146130ba57600084156130a8578287015190505b6130b28582613034565b86555061311a565b601f1984166130c886612ea4565b60005b828110156130f0578489015182556001820191506020850194506020810190506130cb565b8683101561310d5784890151613109601f891682613016565b8355505b6001600288020188555050505b505050505050565b6000604082019050818103600083015261313c81856121ee565b905061314b6020830184612367565b9392505050565b7f50617274656e616972652064656a61206578697374616e740000000000000000600082015250565b60006131886018836121a2565b915061319382613152565b602082019050919050565b600060208201905081810360008301526131b78161317b565b9050919050565b7f45524332303a2064656372656173656420616c6c6f77616e63652062656c6f7760008201527f207a65726f000000000000000000000000000000000000000000000000000000602082015250565b600061321a6025836121a2565b9150613225826131be565b604082019050919050565b600060208201905081810360008301526132498161320d565b9050919050565b7f4f776e61626c653a206e6577206f776e657220697320746865207a65726f206160008201527f6464726573730000000000000000000000000000000000000000000000000000602082015250565b60006132ac6026836121a2565b91506132b782613250565b604082019050919050565b600060208201905081810360008301526132db8161329f565b9050919050565b7f45524332303a20617070726f76652066726f6d20746865207a65726f2061646460008201527f7265737300000000000000000000000000000000000000000000000000000000602082015250565b600061333e6024836121a2565b9150613349826132e2565b604082019050919050565b6000602082019050818103600083015261336d81613331565b9050919050565b7f45524332303a20617070726f766520746f20746865207a65726f20616464726560008201527f7373000000000000000000000000000000000000000000000000000000000000602082015250565b60006133d06022836121a2565b91506133db82613374565b604082019050919050565b600060208201905081810360008301526133ff816133c3565b9050919050565b7f45524332303a206d696e7420746f20746865207a65726f206164647265737300600082015250565b600061343c601f836121a2565b915061344782613406565b602082019050919050565b6000602082019050818103600083015261346b8161342f565b9050919050565b7f45524332303a20696e73756666696369656e7420616c6c6f77616e6365000000600082015250565b60006134a8601d836121a2565b91506134b382613472565b602082019050919050565b600060208201905081810360008301526134d78161349b565b9050919050565b7f45524332303a207472616e736665722066726f6d20746865207a65726f20616460008201527f6472657373000000000000000000000000000000000000000000000000000000602082015250565b600061353a6025836121a2565b9150613545826134de565b604082019050919050565b600060208201905081810360008301526135698161352d565b9050919050565b7f45524332303a207472616e7366657220746f20746865207a65726f206164647260008201527f6573730000000000000000000000000000000000000000000000000000000000602082015250565b60006135cc6023836121a2565b91506135d782613570565b604082019050919050565b600060208201905081810360008301526135fb816135bf565b9050919050565b7f45524332303a207472616e7366657220616d6f756e742065786365656473206260008201527f616c616e63650000000000000000000000000000000000000000000000000000602082015250565b600061365e6026836121a2565b915061366982613602565b604082019050919050565b6000602082019050818103600083015261368d81613651565b9050919050565b7f4f776e61626c653a2063616c6c6572206973206e6f7420746865206f776e6572600082015250565b60006136ca6020836121a2565b91506136d582613694565b602082019050919050565b600060208201905081810360008301526136f9816136bd565b9050919050565b7f45524332303a206275726e2066726f6d20746865207a65726f2061646472657360008201527f7300000000000000000000000000000000000000000000000000000000000000602082015250565b600061375c6021836121a2565b915061376782613700565b604082019050919050565b6000602082019050818103600083015261378b8161374f565b9050919050565b7f45524332303a206275726e20616d6f756e7420657863656564732062616c616e60008201527f6365000000000000000000000000000000000000000000000000000000000000602082015250565b60006137ee6022836121a2565b91506137f982613792565b604082019050919050565b6000602082019050818103600083015261381d816137e1565b905091905056fea2646970667358221220e5e7edf463cfb802453f93f6e34871f6a2cc9c8ff982d6c13befb704cd95b9b964736f6c63430008140033",
  "linkReferences": {},
  "deployedLinkReferences": {}
}