{
  "_format": "hh3-artifact-1",
  "contractName": "OmniUtilCore",
  "sourceName": "contracts/core/OmniUtilCore.sol",
  "abi": [
    {
      "inputs": [
        {
          "internalType": "address",
          "name": "_creator",
          "type": "address"
        },
        {
          "internalType": "address",
          "name": "_treasury",
          "type": "address"
        },
        {
          "internalType": "address",
          "name": "_ai",
          "type": "address"
        }
      ],
      "stateMutability": "nonpayable",
      "type": "constructor"
    },
    {
      "inputs": [
        {
          "internalType": "address",
          "name": "spender",
          "type": "address"
        },
        {
          "internalType": "uint256",
          "name": "allowance",
          "type": "uint256"
        },
        {
          "internalType": "uint256",
          "name": "needed",
          "type": "uint256"
        }
      ],
      "name": "ERC20InsufficientAllowance",
      "type": "error"
    },
    {
      "inputs": [
        {
          "internalType": "address",
          "name": "sender",
          "type": "address"
        },
        {
          "internalType": "uint256",
          "name": "balance",
          "type": "uint256"
        },
        {
          "internalType": "uint256",
          "name": "needed",
          "type": "uint256"
        }
      ],
      "name": "ERC20InsufficientBalance",
      "type": "error"
    },
    {
      "inputs": [
        {
          "internalType": "address",
          "name": "approver",
          "type": "address"
        }
      ],
      "name": "ERC20InvalidApprover",
      "type": "error"
    },
    {
      "inputs": [
        {
          "internalType": "address",
          "name": "receiver",
          "type": "address"
        }
      ],
      "name": "ERC20InvalidReceiver",
      "type": "error"
    },
    {
      "inputs": [
        {
          "internalType": "address",
          "name": "sender",
          "type": "address"
        }
      ],
      "name": "ERC20InvalidSender",
      "type": "error"
    },
    {
      "inputs": [
        {
          "internalType": "address",
          "name": "spender",
          "type": "address"
        }
      ],
      "name": "ERC20InvalidSpender",
      "type": "error"
    },
    {
      "inputs": [
        {
          "internalType": "address",
          "name": "owner",
          "type": "address"
        }
      ],
      "name": "OwnableInvalidOwner",
      "type": "error"
    },
    {
      "inputs": [
        {
          "internalType": "address",
          "name": "account",
          "type": "address"
        }
      ],
      "name": "OwnableUnauthorizedAccount",
      "type": "error"
    },
    {
      "anonymous": false,
      "inputs": [
        {
          "indexed": true,
          "internalType": "address",
          "name": "owner",
          "type": "address"
        },
        {
          "indexed": true,
          "internalType": "address",
          "name": "spender",
          "type": "address"
        },
        {
          "indexed": false,
          "internalType": "uint256",
          "name": "value",
          "type": "uint256"
        }
      ],
      "name": "Approval",
      "type": "event"
    },
    {
      "anonymous": false,
      "inputs": [
        {
          "indexed": true,
          "internalType": "address",
          "name": "to",
          "type": "address"
        },
        {
          "indexed": false,
          "internalType": "uint256",
          "name": "amount",
          "type": "uint256"
        },
        {
          "indexed": false,
          "internalType": "string",
          "name": "feeType",
          "type": "string"
        }
      ],
      "name": "FeeDistributed",
      "type": "event"
    },
    {
      "anonymous": false,
      "inputs": [
        {
          "indexed": true,
          "internalType": "address",
          "name": "user",
          "type": "address"
        },
        {
          "indexed": false,
          "internalType": "string",
          "name": "reason",
          "type": "string"
        }
      ],
      "name": "FraudDetected",
      "type": "event"
    },
    {
      "anonymous": false,
      "inputs": [
        {
          "indexed": true,
          "internalType": "address",
          "name": "influencer",
          "type": "address"
        },
        {
          "indexed": false,
          "internalType": "uint256",
          "name": "amount",
          "type": "uint256"
        }
      ],
      "name": "MiettesDistributed",
      "type": "event"
    },
    {
      "anonymous": false,
      "inputs": [
        {
          "indexed": true,
          "internalType": "address",
          "name": "previousOwner",
          "type": "address"
        },
        {
          "indexed": true,
          "internalType": "address",
          "name": "newOwner",
          "type": "address"
        }
      ],
      "name": "OwnershipTransferred",
      "type": "event"
    },
    {
      "anonymous": false,
      "inputs": [
        {
          "indexed": true,
          "internalType": "address",
          "name": "partner",
          "type": "address"
        },
        {
          "indexed": false,
          "internalType": "uint256",
          "name": "rewardRate",
          "type": "uint256"
        }
      ],
      "name": "PartnerAdded",
      "type": "event"
    },
    {
      "anonymous": false,
      "inputs": [
        {
          "indexed": true,
          "internalType": "address",
          "name": "partner",
          "type": "address"
        },
        {
          "indexed": false,
          "internalType": "enum OmniUtilCore.PartnerLevel",
          "name": "level",
          "type": "uint8"
        },
        {
          "indexed": false,
          "internalType": "uint256",
          "name": "timestamp",
          "type": "uint256"
        }
      ],
      "name": "PartnerCertified",
      "type": "event"
    },
    {
      "anonymous": false,
      "inputs": [
        {
          "indexed": true,
          "internalType": "address",
          "name": "user",
          "type": "address"
        },
        {
          "indexed": false,
          "internalType": "uint256",
          "name": "reward",
          "type": "uint256"
        },
        {
          "indexed": false,
          "internalType": "uint256",
          "name": "usdValue",
          "type": "uint256"
        }
      ],
      "name": "RewardClaimed",
      "type": "event"
    },
    {
      "anonymous": false,
      "inputs": [
        {
          "indexed": true,
          "internalType": "address",
          "name": "user",
          "type": "address"
        },
        {
          "indexed": false,
          "internalType": "string",
          "name": "serviceDescription",
          "type": "string"
        },
        {
          "indexed": false,
          "internalType": "uint256",
          "name": "amount",
          "type": "uint256"
        }
      ],
      "name": "ServiceExchangedEvent",
      "type": "event"
    },
    {
      "anonymous": false,
      "inputs": [
        {
          "indexed": true,
          "internalType": "address",
          "name": "from",
          "type": "address"
        },
        {
          "indexed": true,
          "internalType": "address",
          "name": "to",
          "type": "address"
        },
        {
          "indexed": false,
          "internalType": "uint256",
          "name": "value",
          "type": "uint256"
        }
      ],
      "name": "Transfer",
      "type": "event"
    },
    {
      "anonymous": false,
      "inputs": [
        {
          "indexed": true,
          "internalType": "address",
          "name": "from",
          "type": "address"
        },
        {
          "indexed": true,
          "internalType": "address",
          "name": "to",
          "type": "address"
        },
        {
          "indexed": false,
          "internalType": "uint256",
          "name": "amount",
          "type": "uint256"
        }
      ],
      "name": "TransferInEcosystem",
      "type": "event"
    },
    {
      "anonymous": false,
      "inputs": [
        {
          "indexed": true,
          "internalType": "address",
          "name": "user",
          "type": "address"
        },
        {
          "indexed": false,
          "internalType": "uint256",
          "name": "amount",
          "type": "uint256"
        }
      ],
      "name": "USDTExchanged",
      "type": "event"
    },
    {
      "inputs": [],
      "name": "AI_COORDINATOR",
      "outputs": [
        {
          "internalType": "address",
          "name": "",
          "type": "address"
        }
      ],
      "stateMutability": "view",
      "type": "function"
    },
    {
      "inputs": [],
      "name": "CREATOR",
      "outputs": [
        {
          "internalType": "address",
          "name": "",
          "type": "address"
        }
      ],
      "stateMutability": "view",
      "type": "function"
    },
    {
      "inputs": [],
      "name": "TREASURY",
      "outputs": [
        {
          "internalType": "address",
          "name": "",
          "type": "address"
        }
      ],
      "stateMutability": "view",
      "type": "function"
    },
    {
      "inputs": [
        {
          "internalType": "address",
          "name": "partner",
          "type": "address"
        },
        {
          "internalType": "uint256",
          "name": "rewardRate",
          "type": "uint256"
        },
        {
          "internalType": "address",
          "name": "ecosystem",
          "type": "address"
        },
        {
          "internalType": "uint256",
          "name": "_loyalty",
          "type": "uint256"
        }
      ],
      "name": "addPartner",
      "outputs": [],
      "stateMutability": "nonpayable",
      "type": "function"
    },
    {
      "inputs": [
        {
          "internalType": "address",
          "name": "owner",
          "type": "address"
        },
        {
          "internalType": "address",
          "name": "spender",
          "type": "address"
        }
      ],
      "name": "allowance",
      "outputs": [
        {
          "internalType": "uint256",
          "name": "",
          "type": "uint256"
        }
      ],
      "stateMutability": "view",
      "type": "function"
    },
    {
      "inputs": [
        {
          "internalType": "address",
          "name": "spender",
          "type": "address"
        },
        {
          "internalType": "uint256",
          "name": "value",
          "type": "uint256"
        }
      ],
      "name": "approve",
      "outputs": [
        {
          "internalType": "bool",
          "name": "",
          "type": "bool"
        }
      ],
      "stateMutability": "nonpayable",
      "type": "function"
    },
    {
      "inputs": [
        {
          "internalType": "address",
          "name": "account",
          "type": "address"
        }
      ],
      "name": "balanceOf",
      "outputs": [
        {
          "internalType": "uint256",
          "name": "",
          "type": "uint256"
        }
      ],
      "stateMutability": "view",
      "type": "function"
    },
    {
      "inputs": [
        {
          "internalType": "uint256",
          "name": "amount",
          "type": "uint256"
        }
      ],
      "name": "burnForStability",
      "outputs": [],
      "stateMutability": "nonpayable",
      "type": "function"
    },
    {
      "inputs": [
        {
          "internalType": "address",
          "name": "partner",
          "type": "address"
        },
        {
          "internalType": "uint256",
          "name": "amountSpentUSD",
          "type": "uint256"
        }
      ],
      "name": "claimReward",
      "outputs": [],
      "stateMutability": "nonpayable",
      "type": "function"
    },
    {
      "inputs": [],
      "name": "decimals",
      "outputs": [
        {
          "internalType": "uint8",
          "name": "",
          "type": "uint8"
        }
      ],
      "stateMutability": "view",
      "type": "function"
    },
    {
      "inputs": [
        {
          "internalType": "address[]",
          "name": "influencers",
          "type": "address[]"
        },
        {
          "internalType": "uint256",
          "name": "totalNetworkFee",
          "type": "uint256"
        }
      ],
      "name": "distributeMiettes",
      "outputs": [],
      "stateMutability": "nonpayable",
      "type": "function"
    },
    {
      "inputs": [
        {
          "internalType": "uint256",
          "name": "amount",
          "type": "uint256"
        },
        {
          "internalType": "string",
          "name": "description",
          "type": "string"
        }
      ],
      "name": "exchangeForService",
      "outputs": [],
      "stateMutability": "nonpayable",
      "type": "function"
    },
    {
      "inputs": [
        {
          "internalType": "uint256",
          "name": "amount",
          "type": "uint256"
        }
      ],
      "name": "exchangeForUSDT",
      "outputs": [],
      "stateMutability": "nonpayable",
      "type": "function"
    },
    {
      "inputs": [
        {
          "internalType": "address",
          "name": "user",
          "type": "address"
        },
        {
          "internalType": "string",
          "name": "reason",
          "type": "string"
        }
      ],
      "name": "flagFraud",
      "outputs": [],
      "stateMutability": "nonpayable",
      "type": "function"
    },
    {
      "inputs": [
        {
          "internalType": "address",
          "name": "",
          "type": "address"
        }
      ],
      "name": "isPartner",
      "outputs": [
        {
          "internalType": "bool",
          "name": "",
          "type": "bool"
        }
      ],
      "stateMutability": "view",
      "type": "function"
    },
    {
      "inputs": [],
      "name": "lastReset",
      "outputs": [
        {
          "internalType": "uint256",
          "name": "",
          "type": "uint256"
        }
      ],
      "stateMutability": "view",
      "type": "function"
    },
    {
      "inputs": [
        {
          "internalType": "address",
          "name": "",
          "type": "address"
        }
      ],
      "name": "loyaltyFactor",
      "outputs": [
        {
          "internalType": "uint256",
          "name": "",
          "type": "uint256"
        }
      ],
      "stateMutability": "view",
      "type": "function"
    },
    {
      "inputs": [],
      "name": "maxAnnualMint",
      "outputs": [
        {
          "internalType": "uint256",
          "name": "",
          "type": "uint256"
        }
      ],
      "stateMutability": "view",
      "type": "function"
    },
    {
      "inputs": [
        {
          "internalType": "uint256",
          "name": "amount",
          "type": "uint256"
        }
      ],
      "name": "mintForStability",
      "outputs": [],
      "stateMutability": "nonpayable",
      "type": "function"
    },
    {
      "inputs": [],
      "name": "mintedThisYear",
      "outputs": [
        {
          "internalType": "uint256",
          "name": "",
          "type": "uint256"
        }
      ],
      "stateMutability": "view",
      "type": "function"
    },
    {
      "inputs": [],
      "name": "name",
      "outputs": [
        {
          "internalType": "string",
          "name": "",
          "type": "string"
        }
      ],
      "stateMutability": "view",
      "type": "function"
    },
    {
      "inputs": [],
      "name": "owner",
      "outputs": [
        {
          "internalType": "address",
          "name": "",
          "type": "address"
        }
      ],
      "stateMutability": "view",
      "type": "function"
    },
    {
      "inputs": [
        {
          "internalType": "address",
          "name": "",
          "type": "address"
        }
      ],
      "name": "partnerLevel",
      "outputs": [
        {
          "internalType": "enum OmniUtilCore.PartnerLevel",
          "name": "",
          "type": "uint8"
        }
      ],
      "stateMutability": "view",
      "type": "function"
    },
    {
      "inputs": [
        {
          "internalType": "address",
          "name": "",
          "type": "address"
        }
      ],
      "name": "partnerRewardRates",
      "outputs": [
        {
          "internalType": "uint256",
          "name": "",
          "type": "uint256"
        }
      ],
      "stateMutability": "view",
      "type": "function"
    },
    {
      "inputs": [],
      "name": "renounceOwnership",
      "outputs": [],
      "stateMutability": "nonpayable",
      "type": "function"
    },
    {
      "inputs": [
        {
          "internalType": "uint256",
          "name": "",
          "type": "uint256"
        }
      ],
      "name": "serviceExchanges",
      "outputs": [
        {
          "internalType": "address",
          "name": "user",
          "type": "address"
        },
        {
          "internalType": "string",
          "name": "serviceDescription",
          "type": "string"
        },
        {
          "internalType": "uint256",
          "name": "amount",
          "type": "uint256"
        },
        {
          "internalType": "uint256",
          "name": "timestamp",
          "type": "uint256"
        }
      ],
      "stateMutability": "view",
      "type": "function"
    },
    {
      "inputs": [
        {
          "internalType": "uint256",
          "name": "rate",
          "type": "uint256"
        }
      ],
      "name": "setUsdtExchangeRate",
      "outputs": [],
      "stateMutability": "nonpayable",
      "type": "function"
    },
    {
      "inputs": [],
      "name": "symbol",
      "outputs": [
        {
          "internalType": "string",
          "name": "",
          "type": "string"
        }
      ],
      "stateMutability": "view",
      "type": "function"
    },
    {
      "inputs": [],
      "name": "totalSupply",
      "outputs": [
        {
          "internalType": "uint256",
          "name": "",
          "type": "uint256"
        }
      ],
      "stateMutability": "view",
      "type": "function"
    },
    {
      "inputs": [
        {
          "internalType": "address",
          "name": "to",
          "type": "address"
        },
        {
          "internalType": "uint256",
          "name": "value",
          "type": "uint256"
        }
      ],
      "name": "transfer",
      "outputs": [
        {
          "internalType": "bool",
          "name": "",
          "type": "bool"
        }
      ],
      "stateMutability": "nonpayable",
      "type": "function"
    },
    {
      "inputs": [
        {
          "internalType": "address",
          "name": "from",
          "type": "address"
        },
        {
          "internalType": "address",
          "name": "to",
          "type": "address"
        },
        {
          "internalType": "uint256",
          "name": "value",
          "type": "uint256"
        }
      ],
      "name": "transferFrom",
      "outputs": [
        {
          "internalType": "bool",
          "name": "",
          "type": "bool"
        }
      ],
      "stateMutability": "nonpayable",
      "type": "function"
    },
    {
      "inputs": [
        {
          "internalType": "address",
          "name": "to",
          "type": "address"
        },
        {
          "internalType": "uint256",
          "name": "amount",
          "type": "uint256"
        }
      ],
      "name": "transferInEcosystem",
      "outputs": [],
      "stateMutability": "nonpayable",
      "type": "function"
    },
    {
      "inputs": [
        {
          "internalType": "address",
          "name": "newOwner",
          "type": "address"
        }
      ],
      "name": "transferOwnership",
      "outputs": [],
      "stateMutability": "nonpayable",
      "type": "function"
    },
    {
      "inputs": [
        {
          "internalType": "address",
          "name": "partner",
          "type": "address"
        },
        {
          "internalType": "uint256",
          "name": "newRate",
          "type": "uint256"
        },
        {
          "internalType": "enum OmniUtilCore.PartnerLevel",
          "name": "level",
          "type": "uint8"
        },
        {
          "internalType": "uint256",
          "name": "newLoyalty",
          "type": "uint256"
        }
      ],
      "name": "updatePartnerParams",
      "outputs": [],
      "stateMutability": "nonpayable",
      "type": "function"
    },
    {
      "inputs": [],
      "name": "usdtExchangeRate",
      "outputs": [
        {
          "internalType": "uint256",
          "name": "",
          "type": "uint256"
        }
      ],
      "stateMutability": "view",
      "type": "function"
    },
    {
      "inputs": [
        {
          "internalType": "address",
          "name": "",
          "type": "address"
        }
      ],
      "name": "userEcosystem",
      "outputs": [
        {
          "internalType": "address",
          "name": "",
          "type": "address"
        }
      ],
      "stateMutability": "view",
      "type": "function"
    }
  ],
  "bytecode": "0x6080604052600160125534801562000015575f80fd5b50604051620041ed380380620041ed83398181016040528101906200003b919062000674565b336040518060400160405280600881526020017f4f6d6e695574696c0000000000000000000000000000000000000000000000008152506040518060400160405280600481526020017f5554494c000000000000000000000000000000000000000000000000000000008152508160039081620000b9919062000931565b508060049081620000cb919062000931565b5050505f73ffffffffffffffffffffffffffffffffffffffff168173ffffffffffffffffffffffffffffffffffffffff160362000141575f6040517f1e4fbdf700000000000000000000000000000000000000000000000000000000815260040162000138919062000a26565b60405180910390fd5b62000152816200029660201b60201c565b508260065f6101000a81548173ffffffffffffffffffffffffffffffffffffffff021916908373ffffffffffffffffffffffffffffffffffffffff1602179055508160075f6101000a81548173ffffffffffffffffffffffffffffffffffffffff021916908373ffffffffffffffffffffffffffffffffffffffff1602179055508060085f6101000a81548173ffffffffffffffffffffffffffffffffffffffff021916908373ffffffffffffffffffffffffffffffffffffffff1602179055506200025233620002286200035960201b60201c565b600a62000236919062000bca565b620f424062000246919062000c1a565b6200036160201b60201c565b620002626200035960201b60201c565b600a62000270919062000bca565b6298968062000280919062000c1a565b600e819055504260108190555050505062000d05565b5f60055f9054906101000a900473ffffffffffffffffffffffffffffffffffffffff1690508160055f6101000a81548173ffffffffffffffffffffffffffffffffffffffff021916908373ffffffffffffffffffffffffffffffffffffffff1602179055508173ffffffffffffffffffffffffffffffffffffffff168173ffffffffffffffffffffffffffffffffffffffff167f8be0079c531659141344cd1fd0a4f28419497f9722a3daafe3b4186f6b6457e060405160405180910390a35050565b5f6012905090565b5f73ffffffffffffffffffffffffffffffffffffffff168273ffffffffffffffffffffffffffffffffffffffff1603620003d4575f6040517fec442f05000000000000000000000000000000000000000000000000000000008152600401620003cb919062000a26565b60405180910390fd5b620003e75f8383620003eb60201b60201c565b5050565b5f73ffffffffffffffffffffffffffffffffffffffff168373ffffffffffffffffffffffffffffffffffffffff16036200043f578060025f82825462000432919062000c64565b9250508190555062000510565b5f805f8573ffffffffffffffffffffffffffffffffffffffff1673ffffffffffffffffffffffffffffffffffffffff1681526020019081526020015f2054905081811015620004cb578381836040517fe450d38c000000000000000000000000000000000000000000000000000000008152600401620004c29392919062000caf565b60405180910390fd5b8181035f808673ffffffffffffffffffffffffffffffffffffffff1673ffffffffffffffffffffffffffffffffffffffff1681526020019081526020015f2081905550505b5f73ffffffffffffffffffffffffffffffffffffffff168273ffffffffffffffffffffffffffffffffffffffff160362000559578060025f8282540392505081905550620005a3565b805f808473ffffffffffffffffffffffffffffffffffffffff1673ffffffffffffffffffffffffffffffffffffffff1681526020019081526020015f205f82825401925050819055505b8173ffffffffffffffffffffffffffffffffffffffff168373ffffffffffffffffffffffffffffffffffffffff167fddf252ad1be2c89b69c2b068fc378daa952ba7f163c4a11628f55a4df523b3ef8360405162000602919062000cea565b60405180910390a3505050565b5f80fd5b5f73ffffffffffffffffffffffffffffffffffffffff82169050919050565b5f6200063e8262000613565b9050919050565b620006508162000632565b81146200065b575f80fd5b50565b5f815190506200066e8162000645565b92915050565b5f805f606084860312156200068e576200068d6200060f565b5b5f6200069d868287016200065e565b9350506020620006b0868287016200065e565b9250506040620006c3868287016200065e565b9150509250925092565b5f81519050919050565b7f4e487b71000000000000000000000000000000000000000000000000000000005f52604160045260245ffd5b7f4e487b71000000000000000000000000000000000000000000000000000000005f52602260045260245ffd5b5f60028204905060018216806200074957607f821691505b6020821081036200075f576200075e62000704565b5b50919050565b5f819050815f5260205f209050919050565b5f6020601f8301049050919050565b5f82821b905092915050565b5f60088302620007c37fffffffffffffffffffffffffffffffffffffffffffffffffffffffffffffffff8262000786565b620007cf868362000786565b95508019841693508086168417925050509392505050565b5f819050919050565b5f819050919050565b5f62000819620008136200080d84620007e7565b620007f0565b620007e7565b9050919050565b5f819050919050565b6200083483620007f9565b6200084c620008438262000820565b84845462000792565b825550505050565b5f90565b6200086262000854565b6200086f81848462000829565b505050565b5b8181101562000896576200088a5f8262000858565b60018101905062000875565b5050565b601f821115620008e557620008af8162000765565b620008ba8462000777565b81016020851015620008ca578190505b620008e2620008d98562000777565b83018262000874565b50505b505050565b5f82821c905092915050565b5f620009075f1984600802620008ea565b1980831691505092915050565b5f620009218383620008f6565b9150826002028217905092915050565b6200093c82620006cd565b67ffffffffffffffff811115620009585762000957620006d7565b5b62000964825462000731565b620009718282856200089a565b5f60209050601f831160018114620009a7575f841562000992578287015190505b6200099e858262000914565b86555062000a0d565b601f198416620009b78662000765565b5f5b82811015620009e057848901518255600182019150602085019450602081019050620009b9565b8683101562000a005784890151620009fc601f891682620008f6565b8355505b6001600288020188555050505b505050505050565b62000a208162000632565b82525050565b5f60208201905062000a3b5f83018462000a15565b92915050565b7f4e487b71000000000000000000000000000000000000000000000000000000005f52601160045260245ffd5b5f8160011c9050919050565b5f808291508390505b600185111562000acb5780860481111562000aa35762000aa262000a41565b5b600185161562000ab35780820291505b808102905062000ac38562000a6e565b945062000a83565b94509492505050565b5f8262000ae5576001905062000bb7565b8162000af4575f905062000bb7565b816001811462000b0d576002811462000b185762000b4e565b600191505062000bb7565b60ff84111562000b2d5762000b2c62000a41565b5b8360020a91508482111562000b475762000b4662000a41565b5b5062000bb7565b5060208310610133831016604e8410600b841016171562000b885782820a90508381111562000b825762000b8162000a41565b5b62000bb7565b62000b97848484600162000a7a565b9250905081840481111562000bb15762000bb062000a41565b5b81810290505b9392505050565b5f60ff82169050919050565b5f62000bd682620007e7565b915062000be38362000bbe565b925062000c127fffffffffffffffffffffffffffffffffffffffffffffffffffffffffffffffff848462000ad4565b905092915050565b5f62000c2682620007e7565b915062000c3383620007e7565b925082820262000c4381620007e7565b9150828204841483151762000c5d5762000c5c62000a41565b5b5092915050565b5f62000c7082620007e7565b915062000c7d83620007e7565b925082820190508082111562000c985762000c9762000a41565b5b92915050565b62000ca981620007e7565b82525050565b5f60608201905062000cc45f83018662000a15565b62000cd3602083018562000c9e565b62000ce2604083018462000c9e565b949350505050565b5f60208201905062000cff5f83018462000c9e565b92915050565b6134da8062000d135f395ff3fe608060405234801561000f575f80fd5b506004361061021a575f3560e01c8063715018a611610123578063a9059cbb116100ab578063e17509fe1161007a578063e17509fe14610638578063e4bce1b714610656578063e4fbb60914610689578063efb89f7d146106a7578063f2fde38b146106d75761021a565b8063a9059cbb1461059e578063b0ecf83b146105ce578063c9a1e7b2146105ea578063dd62ed3e146106085761021a565b80638c0f9aac116100f25780638c0f9aac146104e65780638da5cb5b14610516578063940a950d1461053457806395d89b41146105645780639e32e360146105825761021a565b8063715018a6146104885780637e943d26146104925780637ff71022146104ae5780638211cabc146104ca5761021a565b8063313ce567116101a65780635b7e638f116101755780635b7e638f146103c05780636546f653146103dc5780636a7cdb0b1461040c5780636fb6d2c01461043c57806370a08231146104585761021a565b8063313ce5671461034e5780633e4d04881461036c57806354decde1146103885780635b593b59146103a45761021a565b806318160ddd116101ed57806318160ddd146102a657806323b872dd146102c4578063276eb690146102f45780632d2c55651461031257806330e6d7aa146103305761021a565b806306fdde031461021e578063095ea7b31461023c57806311d270961461026c578063174e31c41461028a575b5f80fd5b6102266106f3565b604051610233919061244a565b60405180910390f35b610256600480360381019061025191906124ff565b610783565b6040516102639190612557565b60405180910390f35b6102746107a5565b604051610281919061257f565b60405180910390f35b6102a4600480360381019061029f91906124ff565b6107ca565b005b6102ae610c0e565b6040516102bb91906125a7565b60405180910390f35b6102de60048036038101906102d991906125c0565b610c17565b6040516102eb9190612557565b60405180910390f35b6102fc610c45565b60405161030991906125a7565b60405180910390f35b61031a610c4b565b604051610327919061257f565b60405180910390f35b610338610c70565b60405161034591906125a7565b60405180910390f35b610356610c76565b604051610363919061262b565b60405180910390f35b61038660048036038101906103819190612667565b610c7e565b005b6103a2600480360381019061039d919061272c565b610ed4565b005b6103be60048036038101906103b99190612789565b611018565b005b6103da60048036038101906103d59190612789565b611073565b005b6103f660048036038101906103f191906127b4565b611085565b6040516104039190612852565b60405180910390f35b610426600480360381019061042191906127b4565b6110a2565b60405161043391906125a7565b60405180910390f35b610456600480360381019061045191906124ff565b6110b7565b005b610472600480360381019061046d91906127b4565b611251565b60405161047f91906125a7565b60405180910390f35b610490611296565b005b6104ac60048036038101906104a791906128c0565b6112a9565b005b6104c860048036038101906104c3919061291d565b6114a5565b005b6104e460048036038101906104df9190612789565b611744565b005b61050060048036038101906104fb91906127b4565b61180e565b60405161050d9190612557565b60405180910390f35b61051e61182b565b60405161052b919061257f565b60405180910390f35b61054e600480360381019061054991906127b4565b611853565b60405161055b91906125a7565b60405180910390f35b61056c611868565b604051610579919061244a565b60405180910390f35b61059c60048036038101906105979190612981565b6118f8565b005b6105b860048036038101906105b391906124ff565b611955565b6040516105c59190612557565b60405180910390f35b6105e860048036038101906105e39190612789565b611977565b005b6105f26119ad565b6040516105ff91906125a7565b60405180910390f35b610622600480360381019061061d91906129de565b6119b3565b60405161062f91906125a7565b60405180910390f35b610640611a35565b60405161064d91906125a7565b60405180910390f35b610670600480360381019061066b9190612789565b611a3b565b6040516106809493929190612a1c565b60405180910390f35b610691611b1b565b60405161069e919061257f565b60405180910390f35b6106c160048036038101906106bc91906127b4565b611b40565b6040516106ce919061257f565b60405180910390f35b6106f160048036038101906106ec91906127b4565b611b70565b005b60606003805461070290612a93565b80601f016020809104026020016040519081016040528092919081815260200182805461072e90612a93565b80156107795780601f1061075057610100808354040283529160200191610779565b820191905f5260205f20905b81548152906001019060200180831161075c57829003601f168201915b5050505050905090565b5f8061078d611bf4565b905061079a818585611bfb565b600191505092915050565b60085f9054906101000a900473ffffffffffffffffffffffffffffffffffffffff1681565b6064600b5f8473ffffffffffffffffffffffffffffffffffffffff1673ffffffffffffffffffffffffffffffffffffffff1681526020019081526020015f2054826108159190612af0565b61081f9190612b5e565b6301e133806010546108319190612b8e565b421115610847575f600f81905550426010819055505b600e5481600f546108589190612b8e565b1115610899576040517f08c379a000000000000000000000000000000000000000000000000000000000815260040161089090612c0b565b60405180910390fd5b60095f8473ffffffffffffffffffffffffffffffffffffffff1673ffffffffffffffffffffffffffffffffffffffff1681526020019081526020015f205f9054906101000a900460ff16610922576040517f08c379a000000000000000000000000000000000000000000000000000000000815260040161091990612c73565b60405180910390fd5b5f8211610964576040517f08c379a000000000000000000000000000000000000000000000000000000000815260040161095b90612cdb565b60405180910390fd5b5f6064600b5f8673ffffffffffffffffffffffffffffffffffffffff1673ffffffffffffffffffffffffffffffffffffffff1681526020019081526020015f2054846109b09190612af0565b6109ba9190612b5e565b90505f6064600c5f3373ffffffffffffffffffffffffffffffffffffffff1673ffffffffffffffffffffffffffffffffffffffff1681526020019081526020015f205483610a089190612af0565b610a129190612b5e565b90505f8183610a219190612b8e565b90505f606482610a319190612b5e565b90505f606483610a419190612b5e565b90505f818385610a519190612cf9565b610a5b9190612cf9565b9050610a673382611c0d565b610a9260065f9054906101000a900473ffffffffffffffffffffffffffffffffffffffff1684611c0d565b610abd60075f9054906101000a900473ffffffffffffffffffffffffffffffffffffffff1683611c0d565b3373ffffffffffffffffffffffffffffffffffffffff167ff01da32686223933d8a18a391060918c7f11a3648639edd87ae013e2e2731743828a604051610b05929190612d2c565b60405180910390a260065f9054906101000a900473ffffffffffffffffffffffffffffffffffffffff1673ffffffffffffffffffffffffffffffffffffffff167f45c93635814d15a78f2c9d195f2efc256a56c851e08b146194f18dc698f4e81a84604051610b749190612d9d565b60405180910390a260075f9054906101000a900473ffffffffffffffffffffffffffffffffffffffff1673ffffffffffffffffffffffffffffffffffffffff167f45c93635814d15a78f2c9d195f2efc256a56c851e08b146194f18dc698f4e81a83604051610be39190612e13565b60405180910390a250505050505080600f5f828254610c029190612b8e565b92505081905550505050565b5f600254905090565b5f80610c21611bf4565b9050610c2e858285611c8c565b610c39858585611d1f565b60019150509392505050565b600e5481565b60075f9054906101000a900473ffffffffffffffffffffffffffffffffffffffff1681565b60125481565b5f6012905090565b60085f9054906101000a900473ffffffffffffffffffffffffffffffffffffffff1673ffffffffffffffffffffffffffffffffffffffff163373ffffffffffffffffffffffffffffffffffffffff1614610d0d576040517f08c379a0000000000000000000000000000000000000000000000000000000008152600401610d0490612e89565b60405180910390fd5b60095f8573ffffffffffffffffffffffffffffffffffffffff1673ffffffffffffffffffffffffffffffffffffffff1681526020019081526020015f205f9054906101000a900460ff16610d96576040517f08c379a0000000000000000000000000000000000000000000000000000000008152600401610d8d90612ef1565b60405180910390fd5b82600b5f8673ffffffffffffffffffffffffffffffffffffffff1673ffffffffffffffffffffffffffffffffffffffff1681526020019081526020015f208190555081600a5f8673ffffffffffffffffffffffffffffffffffffffff1673ffffffffffffffffffffffffffffffffffffffff1681526020019081526020015f205f6101000a81548160ff02191690836004811115610e3757610e366127df565b5b021790555080600c5f8673ffffffffffffffffffffffffffffffffffffffff1673ffffffffffffffffffffffffffffffffffffffff1681526020019081526020015f20819055508373ffffffffffffffffffffffffffffffffffffffff167fa007985236526f78c17156f345fdbfffd8b920e5eac89af644f2ae019bb08a1c8342604051610ec6929190612f0f565b60405180910390a250505050565b610edc611e0f565b5f8383905011610f21576040517f08c379a0000000000000000000000000000000000000000000000000000000008152600401610f1890612f80565b60405180910390fd5b5f838390506064610f329190612af0565b600a83610f3f9190612af0565b610f499190612b5e565b90505f5b8484905081101561101157610f89858583818110610f6e57610f6d612f9e565b5b9050602002016020810190610f8391906127b4565b83611c0d565b848482818110610f9c57610f9b612f9e565b5b9050602002016020810190610fb191906127b4565b73ffffffffffffffffffffffffffffffffffffffff167fae2836119c4aafe281007667fea5790acb43a8cb93e138556b918ba8917f48c783604051610ff691906125a7565b60405180910390a2808061100990612fcb565b915050610f4d565b5050505050565b6110223382611e96565b3373ffffffffffffffffffffffffffffffffffffffff167fe172eaadf9ddb44c4718b3f22d0f5b689f0f4316d65c5bf38c48399530d2e3948260405161106891906125a7565b60405180910390a250565b61107b611e0f565b8060128190555050565b600a602052805f5260405f205f915054906101000a900460ff1681565b600c602052805f5260405f205f915090505481565b600d5f8373ffffffffffffffffffffffffffffffffffffffff1673ffffffffffffffffffffffffffffffffffffffff1681526020019081526020015f205f9054906101000a900473ffffffffffffffffffffffffffffffffffffffff1673ffffffffffffffffffffffffffffffffffffffff16600d5f3373ffffffffffffffffffffffffffffffffffffffff1673ffffffffffffffffffffffffffffffffffffffff1681526020019081526020015f205f9054906101000a900473ffffffffffffffffffffffffffffffffffffffff1673ffffffffffffffffffffffffffffffffffffffff16146111dd576040517f08c379a00000000000000000000000000000000000000000000000000000000081526004016111d49061305c565b60405180910390fd5b6111e8338383611d1f565b8173ffffffffffffffffffffffffffffffffffffffff163373ffffffffffffffffffffffffffffffffffffffff167f104a9d1277556ca2dadc097f5cc4395358a01a73d92ec300d3de6b01dafa6eb28360405161124591906125a7565b60405180910390a35050565b5f805f8373ffffffffffffffffffffffffffffffffffffffff1673ffffffffffffffffffffffffffffffffffffffff1681526020019081526020015f20549050919050565b61129e611e0f565b6112a75f611f15565b565b60095f3373ffffffffffffffffffffffffffffffffffffffff1673ffffffffffffffffffffffffffffffffffffffff1681526020019081526020015f205f9054906101000a900460ff16611332576040517f08c379a0000000000000000000000000000000000000000000000000000000008152600401611329906130c4565b60405180910390fd5b61133c3384611e96565b601160405180608001604052803373ffffffffffffffffffffffffffffffffffffffff16815260200184848080601f0160208091040260200160405190810160405280939291908181526020018383808284375f81840152601f19601f82011690508083019250505050505050815260200185815260200142815250908060018154018082558091505060019003905f5260205f2090600402015f909190919091505f820151815f015f6101000a81548173ffffffffffffffffffffffffffffffffffffffff021916908373ffffffffffffffffffffffffffffffffffffffff160217905550602082015181600101908161143791906132ac565b50604082015181600201556060820151816003015550503373ffffffffffffffffffffffffffffffffffffffff167f89dddc9fb2829f59348c49f4c075e258628e3f3c27bccd6f2490e2777b00e671838386604051611498939291906133b5565b60405180910390a2505050565b6114ad611e0f565b60095f8573ffffffffffffffffffffffffffffffffffffffff1673ffffffffffffffffffffffffffffffffffffffff1681526020019081526020015f205f9054906101000a900460ff1615611537576040517f08c379a000000000000000000000000000000000000000000000000000000000815260040161152e9061342f565b60405180910390fd5b600160095f8673ffffffffffffffffffffffffffffffffffffffff1673ffffffffffffffffffffffffffffffffffffffff1681526020019081526020015f205f6101000a81548160ff02191690831515021790555082600b5f8673ffffffffffffffffffffffffffffffffffffffff1673ffffffffffffffffffffffffffffffffffffffff1681526020019081526020015f208190555081600d5f8673ffffffffffffffffffffffffffffffffffffffff1673ffffffffffffffffffffffffffffffffffffffff1681526020019081526020015f205f6101000a81548173ffffffffffffffffffffffffffffffffffffffff021916908373ffffffffffffffffffffffffffffffffffffffff16021790555080600c5f8673ffffffffffffffffffffffffffffffffffffffff1673ffffffffffffffffffffffffffffffffffffffff1681526020019081526020015f20819055506001600a5f8673ffffffffffffffffffffffffffffffffffffffff1673ffffffffffffffffffffffffffffffffffffffff1681526020019081526020015f205f6101000a81548160ff021916908360048111156116eb576116ea6127df565b5b02179055508373ffffffffffffffffffffffffffffffffffffffff167f2b06702faf86eea27052346f06b81fc1b0108091df3a0fe76bfb7ff20eb0d3df8460405161173691906125a7565b60405180910390a250505050565b61174c611e0f565b806301e1338060105461175f9190612b8e565b421115611775575f600f81905550426010819055505b600e5481600f546117869190612b8e565b11156117c7576040517f08c379a00000000000000000000000000000000000000000000000000000000081526004016117be90612c0b565b60405180910390fd5b6117f260075f9054906101000a900473ffffffffffffffffffffffffffffffffffffffff1683611c0d565b80600f5f8282546118039190612b8e565b925050819055505050565b6009602052805f5260405f205f915054906101000a900460ff1681565b5f60055f9054906101000a900473ffffffffffffffffffffffffffffffffffffffff16905090565b600b602052805f5260405f205f915090505481565b60606004805461187790612a93565b80601f01602080910402602001604051908101604052809291908181526020018280546118a390612a93565b80156118ee5780601f106118c5576101008083540402835291602001916118ee565b820191905f5260205f20905b8154815290600101906020018083116118d157829003601f168201915b5050505050905090565b611900611e0f565b8273ffffffffffffffffffffffffffffffffffffffff167facc320e589f1ccaf53039099aba3ccbc80f1109cc11a4d4cface4432c87e0cf4838360405161194892919061344d565b60405180910390a2505050565b5f8061195f611bf4565b905061196c818585611d1f565b600191505092915050565b61197f611e0f565b6119aa60075f9054906101000a900473ffffffffffffffffffffffffffffffffffffffff1682611e96565b50565b60105481565b5f60015f8473ffffffffffffffffffffffffffffffffffffffff1673ffffffffffffffffffffffffffffffffffffffff1681526020019081526020015f205f8373ffffffffffffffffffffffffffffffffffffffff1673ffffffffffffffffffffffffffffffffffffffff1681526020019081526020015f2054905092915050565b600f5481565b60118181548110611a4a575f80fd5b905f5260205f2090600402015f91509050805f015f9054906101000a900473ffffffffffffffffffffffffffffffffffffffff1690806001018054611a8e90612a93565b80601f0160208091040260200160405190810160405280929190818152602001828054611aba90612a93565b8015611b055780601f10611adc57610100808354040283529160200191611b05565b820191905f5260205f20905b815481529060010190602001808311611ae857829003601f168201915b5050505050908060020154908060030154905084565b60065f9054906101000a900473ffffffffffffffffffffffffffffffffffffffff1681565b600d602052805f5260405f205f915054906101000a900473ffffffffffffffffffffffffffffffffffffffff1681565b611b78611e0f565b5f73ffffffffffffffffffffffffffffffffffffffff168173ffffffffffffffffffffffffffffffffffffffff1603611be8575f6040517f1e4fbdf7000000000000000000000000000000000000000000000000000000008152600401611bdf919061257f565b60405180910390fd5b611bf181611f15565b50565b5f33905090565b611c088383836001611fd8565b505050565b5f73ffffffffffffffffffffffffffffffffffffffff168273ffffffffffffffffffffffffffffffffffffffff1603611c7d575f6040517fec442f05000000000000000000000000000000000000000000000000000000008152600401611c74919061257f565b60405180910390fd5b611c885f83836121a7565b5050565b5f611c9784846119b3565b90507fffffffffffffffffffffffffffffffffffffffffffffffffffffffffffffffff811015611d195781811015611d0a578281836040517ffb8f41b2000000000000000000000000000000000000000000000000000000008152600401611d019392919061346f565b60405180910390fd5b611d1884848484035f611fd8565b5b50505050565b5f73ffffffffffffffffffffffffffffffffffffffff168373ffffffffffffffffffffffffffffffffffffffff1603611d8f575f6040517f96c6fd1e000000000000000000000000000000000000000000000000000000008152600401611d86919061257f565b60405180910390fd5b5f73ffffffffffffffffffffffffffffffffffffffff168273ffffffffffffffffffffffffffffffffffffffff1603611dff575f6040517fec442f05000000000000000000000000000000000000000000000000000000008152600401611df6919061257f565b60405180910390fd5b611e0a8383836121a7565b505050565b611e17611bf4565b73ffffffffffffffffffffffffffffffffffffffff16611e3561182b565b73ffffffffffffffffffffffffffffffffffffffff1614611e9457611e58611bf4565b6040517f118cdaa7000000000000000000000000000000000000000000000000000000008152600401611e8b919061257f565b60405180910390fd5b565b5f73ffffffffffffffffffffffffffffffffffffffff168273ffffffffffffffffffffffffffffffffffffffff1603611f06575f6040517f96c6fd1e000000000000000000000000000000000000000000000000000000008152600401611efd919061257f565b60405180910390fd5b611f11825f836121a7565b5050565b5f60055f9054906101000a900473ffffffffffffffffffffffffffffffffffffffff1690508160055f6101000a81548173ffffffffffffffffffffffffffffffffffffffff021916908373ffffffffffffffffffffffffffffffffffffffff1602179055508173ffffffffffffffffffffffffffffffffffffffff168173ffffffffffffffffffffffffffffffffffffffff167f8be0079c531659141344cd1fd0a4f28419497f9722a3daafe3b4186f6b6457e060405160405180910390a35050565b5f73ffffffffffffffffffffffffffffffffffffffff168473ffffffffffffffffffffffffffffffffffffffff1603612048575f6040517fe602df0500000000000000000000000000000000000000000000000000000000815260040161203f919061257f565b60405180910390fd5b5f73ffffffffffffffffffffffffffffffffffffffff168373ffffffffffffffffffffffffffffffffffffffff16036120b8575f6040517f94280d620000000000000000000000000000000000000000000000000000000081526004016120af919061257f565b60405180910390fd5b8160015f8673ffffffffffffffffffffffffffffffffffffffff1673ffffffffffffffffffffffffffffffffffffffff1681526020019081526020015f205f8573ffffffffffffffffffffffffffffffffffffffff1673ffffffffffffffffffffffffffffffffffffffff1681526020019081526020015f208190555080156121a1578273ffffffffffffffffffffffffffffffffffffffff168473ffffffffffffffffffffffffffffffffffffffff167f8c5be1e5ebec7d5bd14f71427d1e84f3dd0314c0f7b2291e5b200ac8c7c3b9258460405161219891906125a7565b60405180910390a35b50505050565b5f73ffffffffffffffffffffffffffffffffffffffff168373ffffffffffffffffffffffffffffffffffffffff16036121f7578060025f8282546121eb9190612b8e565b925050819055506122c5565b5f805f8573ffffffffffffffffffffffffffffffffffffffff1673ffffffffffffffffffffffffffffffffffffffff1681526020019081526020015f2054905081811015612280578381836040517fe450d38c0000000000000000000000000000000000000000000000000000000081526004016122779392919061346f565b60405180910390fd5b8181035f808673ffffffffffffffffffffffffffffffffffffffff1673ffffffffffffffffffffffffffffffffffffffff1681526020019081526020015f2081905550505b5f73ffffffffffffffffffffffffffffffffffffffff168273ffffffffffffffffffffffffffffffffffffffff160361230c578060025f8282540392505081905550612356565b805f808473ffffffffffffffffffffffffffffffffffffffff1673ffffffffffffffffffffffffffffffffffffffff1681526020019081526020015f205f82825401925050819055505b8173ffffffffffffffffffffffffffffffffffffffff168373ffffffffffffffffffffffffffffffffffffffff167fddf252ad1be2c89b69c2b068fc378daa952ba7f163c4a11628f55a4df523b3ef836040516123b391906125a7565b60405180910390a3505050565b5f81519050919050565b5f82825260208201905092915050565b5f5b838110156123f75780820151818401526020810190506123dc565b5f8484015250505050565b5f601f19601f8301169050919050565b5f61241c826123c0565b61242681856123ca565b93506124368185602086016123da565b61243f81612402565b840191505092915050565b5f6020820190508181035f8301526124628184612412565b905092915050565b5f80fd5b5f80fd5b5f73ffffffffffffffffffffffffffffffffffffffff82169050919050565b5f61249b82612472565b9050919050565b6124ab81612491565b81146124b5575f80fd5b50565b5f813590506124c6816124a2565b92915050565b5f819050919050565b6124de816124cc565b81146124e8575f80fd5b50565b5f813590506124f9816124d5565b92915050565b5f80604083850312156125155761251461246a565b5b5f612522858286016124b8565b9250506020612533858286016124eb565b9150509250929050565b5f8115159050919050565b6125518161253d565b82525050565b5f60208201905061256a5f830184612548565b92915050565b61257981612491565b82525050565b5f6020820190506125925f830184612570565b92915050565b6125a1816124cc565b82525050565b5f6020820190506125ba5f830184612598565b92915050565b5f805f606084860312156125d7576125d661246a565b5b5f6125e4868287016124b8565b93505060206125f5868287016124b8565b9250506040612606868287016124eb565b9150509250925092565b5f60ff82169050919050565b61262581612610565b82525050565b5f60208201905061263e5f83018461261c565b92915050565b60058110612650575f80fd5b50565b5f8135905061266181612644565b92915050565b5f805f806080858703121561267f5761267e61246a565b5b5f61268c878288016124b8565b945050602061269d878288016124eb565b93505060406126ae87828801612653565b92505060606126bf878288016124eb565b91505092959194509250565b5f80fd5b5f80fd5b5f80fd5b5f8083601f8401126126ec576126eb6126cb565b5b8235905067ffffffffffffffff811115612709576127086126cf565b5b602083019150836020820283011115612725576127246126d3565b5b9250929050565b5f805f604084860312156127435761274261246a565b5b5f84013567ffffffffffffffff8111156127605761275f61246e565b5b61276c868287016126d7565b9350935050602061277f868287016124eb565b9150509250925092565b5f6020828403121561279e5761279d61246a565b5b5f6127ab848285016124eb565b91505092915050565b5f602082840312156127c9576127c861246a565b5b5f6127d6848285016124b8565b91505092915050565b7f4e487b71000000000000000000000000000000000000000000000000000000005f52602160045260245ffd5b6005811061281d5761281c6127df565b5b50565b5f81905061282d8261280c565b919050565b5f61283c82612820565b9050919050565b61284c81612832565b82525050565b5f6020820190506128655f830184612843565b92915050565b5f8083601f8401126128805761287f6126cb565b5b8235905067ffffffffffffffff81111561289d5761289c6126cf565b5b6020830191508360018202830111156128b9576128b86126d3565b5b9250929050565b5f805f604084860312156128d7576128d661246a565b5b5f6128e4868287016124eb565b935050602084013567ffffffffffffffff8111156129055761290461246e565b5b6129118682870161286b565b92509250509250925092565b5f805f80608085870312156129355761293461246a565b5b5f612942878288016124b8565b9450506020612953878288016124eb565b9350506040612964878288016124b8565b9250506060612975878288016124eb565b91505092959194509250565b5f805f604084860312156129985761299761246a565b5b5f6129a5868287016124b8565b935050602084013567ffffffffffffffff8111156129c6576129c561246e565b5b6129d28682870161286b565b92509250509250925092565b5f80604083850312156129f4576129f361246a565b5b5f612a01858286016124b8565b9250506020612a12858286016124b8565b9150509250929050565b5f608082019050612a2f5f830187612570565b8181036020830152612a418186612412565b9050612a506040830185612598565b612a5d6060830184612598565b95945050505050565b7f4e487b71000000000000000000000000000000000000000000000000000000005f52602260045260245ffd5b5f6002820490506001821680612aaa57607f821691505b602082108103612abd57612abc612a66565b5b50919050565b7f4e487b71000000000000000000000000000000000000000000000000000000005f52601160045260245ffd5b5f612afa826124cc565b9150612b05836124cc565b9250828202612b13816124cc565b91508282048414831517612b2a57612b29612ac3565b5b5092915050565b7f4e487b71000000000000000000000000000000000000000000000000000000005f52601260045260245ffd5b5f612b68826124cc565b9150612b73836124cc565b925082612b8357612b82612b31565b5b828204905092915050565b5f612b98826124cc565b9150612ba3836124cc565b9250828201905080821115612bbb57612bba612ac3565b5b92915050565b7f4d696e74206361702065786365656465640000000000000000000000000000005f82015250565b5f612bf56011836123ca565b9150612c0082612bc1565b602082019050919050565b5f6020820190508181035f830152612c2281612be9565b9050919050565b7f496e76616c696420706172746e657200000000000000000000000000000000005f82015250565b5f612c5d600f836123ca565b9150612c6882612c29565b602082019050919050565b5f6020820190508181035f830152612c8a81612c51565b9050919050565b7f496e76616c696420616d6f756e740000000000000000000000000000000000005f82015250565b5f612cc5600e836123ca565b9150612cd082612c91565b602082019050919050565b5f6020820190508181035f830152612cf281612cb9565b9050919050565b5f612d03826124cc565b9150612d0e836124cc565b9250828203905081811115612d2657612d25612ac3565b5b92915050565b5f604082019050612d3f5f830185612598565b612d4c6020830184612598565b9392505050565b7f436f7079726967687400000000000000000000000000000000000000000000005f82015250565b5f612d876009836123ca565b9150612d9282612d53565b602082019050919050565b5f604082019050612db05f830184612598565b8181036020830152612dc181612d7b565b905092915050565b7f4e6574776f726b000000000000000000000000000000000000000000000000005f82015250565b5f612dfd6007836123ca565b9150612e0882612dc9565b602082019050919050565b5f604082019050612e265f830184612598565b8181036020830152612e3781612df1565b905092915050565b7f4e6f7420414920636f6f7264696e61746f7200000000000000000000000000005f82015250565b5f612e736012836123ca565b9150612e7e82612e3f565b602082019050919050565b5f6020820190508181035f830152612ea081612e67565b9050919050565b7f4e6f7420706172746e65720000000000000000000000000000000000000000005f82015250565b5f612edb600b836123ca565b9150612ee682612ea7565b602082019050919050565b5f6020820190508181035f830152612f0881612ecf565b9050919050565b5f604082019050612f225f830185612843565b612f2f6020830184612598565b9392505050565b7f4e6f20696e666c75656e636572730000000000000000000000000000000000005f82015250565b5f612f6a600e836123ca565b9150612f7582612f36565b602082019050919050565b5f6020820190508181035f830152612f9781612f5e565b9050919050565b7f4e487b71000000000000000000000000000000000000000000000000000000005f52603260045260245ffd5b5f612fd5826124cc565b91507fffffffffffffffffffffffffffffffffffffffffffffffffffffffffffffffff820361300757613006612ac3565b5b600182019050919050565b7f446966666572656e742065636f73797374656d000000000000000000000000005f82015250565b5f6130466013836123ca565b915061305182613012565b602082019050919050565b5f6020820190508181035f8301526130738161303a565b9050919050565b7f4f6e6c7920706172746e657200000000000000000000000000000000000000005f82015250565b5f6130ae600c836123ca565b91506130b98261307a565b602082019050919050565b5f6020820190508181035f8301526130db816130a2565b9050919050565b7f4e487b71000000000000000000000000000000000000000000000000000000005f52604160045260245ffd5b5f819050815f5260205f209050919050565b5f6020601f8301049050919050565b5f82821b905092915050565b5f6008830261316b7fffffffffffffffffffffffffffffffffffffffffffffffffffffffffffffffff82613130565b6131758683613130565b95508019841693508086168417925050509392505050565b5f819050919050565b5f6131b06131ab6131a6846124cc565b61318d565b6124cc565b9050919050565b5f819050919050565b6131c983613196565b6131dd6131d5826131b7565b84845461313c565b825550505050565b5f90565b6131f16131e5565b6131fc8184846131c0565b505050565b5b8181101561321f576132145f826131e9565b600181019050613202565b5050565b601f821115613264576132358161310f565b61323e84613121565b8101602085101561324d578190505b61326161325985613121565b830182613201565b50505b505050565b5f82821c905092915050565b5f6132845f1984600802613269565b1980831691505092915050565b5f61329c8383613275565b9150826002028217905092915050565b6132b5826123c0565b67ffffffffffffffff8111156132ce576132cd6130e2565b5b6132d88254612a93565b6132e3828285613223565b5f60209050601f831160018114613314575f8415613302578287015190505b61330c8582613291565b865550613373565b601f1984166133228661310f565b5f5b8281101561334957848901518255600182019150602085019450602081019050613324565b868310156133665784890151613362601f891682613275565b8355505b6001600288020188555050505b505050505050565b828183375f83830152505050565b5f61339483856123ca565b93506133a183858461337b565b6133aa83612402565b840190509392505050565b5f6040820190508181035f8301526133ce818587613389565b90506133dd6020830184612598565b949350505050565b7f416c726561647920706172746e657200000000000000000000000000000000005f82015250565b5f613419600f836123ca565b9150613424826133e5565b602082019050919050565b5f6020820190508181035f8301526134468161340d565b9050919050565b5f6020820190508181035f830152613466818486613389565b90509392505050565b5f6060820190506134825f830186612570565b61348f6020830185612598565b61349c6040830184612598565b94935050505056fea2646970667358221220099ebe462941e082b6cb250d94f8847ec2e175ac34f23f666f2b0d9f602c392264736f6c63430008140033",
  "linkReferences": {},
  "deployedLinkReferences": {},
  "immutableReferences": {},
  "inputSourceName": "project/contracts/core/OmniUtilCore.sol",
  "buildInfoId": "solc-0_8_20-3c3f7e9fedb9d9c9a0782e6b9349708a566ce5f5"
}